{
  "_format": "hh-sol-artifact-1",
  "contractName": "ClipArtNumber",
  "sourceName": "contracts/ClipArtNumber.sol",
  "abi": [
    {
      "inputs": [],
      "stateMutability": "nonpayable",
      "type": "constructor"
    },
    {
      "anonymous": false,
      "inputs": [
        {
          "indexed": true,
          "internalType": "address",
          "name": "owner",
          "type": "address"
        },
        {
          "indexed": true,
          "internalType": "address",
          "name": "approved",
          "type": "address"
        },
        {
          "indexed": true,
          "internalType": "uint256",
          "name": "tokenId",
          "type": "uint256"
        }
      ],
      "name": "Approval",
      "type": "event"
    },
    {
      "anonymous": false,
      "inputs": [
        {
          "indexed": true,
          "internalType": "address",
          "name": "owner",
          "type": "address"
        },
        {
          "indexed": true,
          "internalType": "address",
          "name": "operator",
          "type": "address"
        },
        {
          "indexed": false,
          "internalType": "bool",
          "name": "approved",
          "type": "bool"
        }
      ],
      "name": "ApprovalForAll",
      "type": "event"
    },
    {
      "anonymous": false,
      "inputs": [
        {
          "indexed": false,
          "internalType": "address",
          "name": "sender",
          "type": "address"
        },
        {
          "indexed": false,
          "internalType": "uint256",
          "name": "tokenId",
          "type": "uint256"
        }
      ],
      "name": "ClipArtNumberMinted",
      "type": "event"
    },
    {
      "anonymous": false,
      "inputs": [
        {
          "indexed": true,
          "internalType": "address",
          "name": "previousOwner",
          "type": "address"
        },
        {
          "indexed": true,
          "internalType": "address",
          "name": "newOwner",
          "type": "address"
        }
      ],
      "name": "OwnershipTransferred",
      "type": "event"
    },
    {
      "anonymous": false,
      "inputs": [
        {
          "indexed": true,
          "internalType": "address",
          "name": "from",
          "type": "address"
        },
        {
          "indexed": true,
          "internalType": "address",
          "name": "to",
          "type": "address"
        },
        {
          "indexed": true,
          "internalType": "uint256",
          "name": "tokenId",
          "type": "uint256"
        }
      ],
      "name": "Transfer",
      "type": "event"
    },
    {
      "inputs": [
        {
          "internalType": "address",
          "name": "to",
          "type": "address"
        },
        {
          "internalType": "uint256",
          "name": "tokenId",
          "type": "uint256"
        }
      ],
      "name": "approve",
      "outputs": [],
      "stateMutability": "nonpayable",
      "type": "function"
    },
    {
      "inputs": [
        {
          "internalType": "address",
          "name": "owner",
          "type": "address"
        }
      ],
      "name": "balanceOf",
      "outputs": [
        {
          "internalType": "uint256",
          "name": "",
          "type": "uint256"
        }
      ],
      "stateMutability": "view",
      "type": "function"
    },
    {
      "inputs": [
        {
          "internalType": "uint256",
          "name": "tokenId",
          "type": "uint256"
        }
      ],
      "name": "getApproved",
      "outputs": [
        {
          "internalType": "address",
          "name": "",
          "type": "address"
        }
      ],
      "stateMutability": "view",
      "type": "function"
    },
    {
      "inputs": [
        {
          "internalType": "address",
          "name": "owner",
          "type": "address"
        },
        {
          "internalType": "address",
          "name": "operator",
          "type": "address"
        }
      ],
      "name": "isApprovedForAll",
      "outputs": [
        {
          "internalType": "bool",
          "name": "",
          "type": "bool"
        }
      ],
      "stateMutability": "view",
      "type": "function"
    },
    {
      "inputs": [],
      "name": "mintNFT",
      "outputs": [],
      "stateMutability": "payable",
      "type": "function"
    },
    {
      "inputs": [],
      "name": "name",
      "outputs": [
        {
          "internalType": "string",
          "name": "",
          "type": "string"
        }
      ],
      "stateMutability": "view",
      "type": "function"
    },
    {
      "inputs": [],
      "name": "owner",
      "outputs": [
        {
          "internalType": "address",
          "name": "",
          "type": "address"
        }
      ],
      "stateMutability": "view",
      "type": "function"
    },
    {
      "inputs": [
        {
          "internalType": "uint256",
          "name": "tokenId",
          "type": "uint256"
        }
      ],
      "name": "ownerOf",
      "outputs": [
        {
          "internalType": "address",
          "name": "",
          "type": "address"
        }
      ],
      "stateMutability": "view",
      "type": "function"
    },
    {
      "inputs": [],
      "name": "renounceOwnership",
      "outputs": [],
      "stateMutability": "nonpayable",
      "type": "function"
    },
    {
      "inputs": [
        {
          "internalType": "address",
          "name": "from",
          "type": "address"
        },
        {
          "internalType": "address",
          "name": "to",
          "type": "address"
        },
        {
          "internalType": "uint256",
          "name": "tokenId",
          "type": "uint256"
        }
      ],
      "name": "safeTransferFrom",
      "outputs": [],
      "stateMutability": "nonpayable",
      "type": "function"
    },
    {
      "inputs": [
        {
          "internalType": "address",
          "name": "from",
          "type": "address"
        },
        {
          "internalType": "address",
          "name": "to",
          "type": "address"
        },
        {
          "internalType": "uint256",
          "name": "tokenId",
          "type": "uint256"
        },
        {
          "internalType": "bytes",
          "name": "_data",
          "type": "bytes"
        }
      ],
      "name": "safeTransferFrom",
      "outputs": [],
      "stateMutability": "nonpayable",
      "type": "function"
    },
    {
      "inputs": [
        {
          "internalType": "address",
          "name": "operator",
          "type": "address"
        },
        {
          "internalType": "bool",
          "name": "approved",
          "type": "bool"
        }
      ],
      "name": "setApprovalForAll",
      "outputs": [],
      "stateMutability": "nonpayable",
      "type": "function"
    },
    {
      "inputs": [
        {
          "internalType": "bytes4",
          "name": "interfaceId",
          "type": "bytes4"
        }
      ],
      "name": "supportsInterface",
      "outputs": [
        {
          "internalType": "bool",
          "name": "",
          "type": "bool"
        }
      ],
      "stateMutability": "view",
      "type": "function"
    },
    {
      "inputs": [],
      "name": "symbol",
      "outputs": [
        {
          "internalType": "string",
          "name": "",
          "type": "string"
        }
      ],
      "stateMutability": "view",
      "type": "function"
    },
    {
      "inputs": [
        {
          "internalType": "uint256",
          "name": "tokenId",
          "type": "uint256"
        }
      ],
      "name": "tokenURI",
      "outputs": [
        {
          "internalType": "string",
          "name": "",
          "type": "string"
        }
      ],
      "stateMutability": "view",
      "type": "function"
    },
    {
      "inputs": [
        {
          "internalType": "address",
          "name": "from",
          "type": "address"
        },
        {
          "internalType": "address",
          "name": "to",
          "type": "address"
        },
        {
          "internalType": "uint256",
          "name": "tokenId",
          "type": "uint256"
        }
      ],
      "name": "transferFrom",
      "outputs": [],
      "stateMutability": "nonpayable",
      "type": "function"
    },
    {
      "inputs": [
        {
          "internalType": "address",
          "name": "newOwner",
          "type": "address"
        }
      ],
      "name": "transferOwnership",
      "outputs": [],
      "stateMutability": "nonpayable",
      "type": "function"
    }
  ],
  "bytecode": "0x6080604052604051806060016040528060368152602001620035b760369139600990805190602001906200003592919062000205565b503480156200004357600080fd5b506040518060400160405280600d81526020017f436c69704172744e756d626572000000000000000000000000000000000000008152506040518060400160405280600681526020017f434c5041525400000000000000000000000000000000000000000000000000008152508160009080519060200190620000c892919062000205565b508060019080519060200190620000e192919062000205565b50505062000104620000f86200012160201b60201c565b6200012960201b60201c565b6200011b6008620001ef60201b62000ec31760201c565b6200031a565b600033905090565b6000600760009054906101000a900473ffffffffffffffffffffffffffffffffffffffff16905081600760006101000a81548173ffffffffffffffffffffffffffffffffffffffff021916908373ffffffffffffffffffffffffffffffffffffffff1602179055508173ffffffffffffffffffffffffffffffffffffffff168173ffffffffffffffffffffffffffffffffffffffff167f8be0079c531659141344cd1fd0a4f28419497f9722a3daafe3b4186f6b6457e060405160405180910390a35050565b6001816000016000828254019250508190555050565b8280546200021390620002b5565b90600052602060002090601f01602090048101928262000237576000855562000283565b82601f106200025257805160ff191683800117855562000283565b8280016001018555821562000283579182015b828111156200028257825182559160200191906001019062000265565b5b50905062000292919062000296565b5090565b5b80821115620002b157600081600090555060010162000297565b5090565b60006002820490506001821680620002ce57607f821691505b60208210811415620002e557620002e4620002eb565b5b50919050565b7f4e487b7100000000000000000000000000000000000000000000000000000000600052602260045260246000fd5b61328d806200032a6000396000f3fe6080604052600436106100fe5760003560e01c806370a0823111610095578063a22cb46511610064578063a22cb46514610314578063b88d4fde1461033d578063c87b56dd14610366578063e985e9c5146103a3578063f2fde38b146103e0576100fe565b806370a082311461026a578063715018a6146102a75780638da5cb5b146102be57806395d89b41146102e9576100fe565b806314f710fe116100d157806314f710fe146101d157806323b872dd146101db57806342842e0e146102045780636352211e1461022d576100fe565b806301ffc9a71461010357806306fdde0314610140578063081812fc1461016b578063095ea7b3146101a8575b600080fd5b34801561010f57600080fd5b5061012a60048036038101906101259190612037565b610409565b60405161013791906125c3565b60405180910390f35b34801561014c57600080fd5b506101556104eb565b60405161016291906125de565b60405180910390f35b34801561017757600080fd5b50610192600480360381019061018d9190612089565b61057d565b60405161019f9190612533565b60405180910390f35b3480156101b457600080fd5b506101cf60048036038101906101ca9190611ffb565b610602565b005b6101d961071a565b005b3480156101e757600080fd5b5061020260048036038101906101fd9190611ef5565b61083f565b005b34801561021057600080fd5b5061022b60048036038101906102269190611ef5565b61089f565b005b34801561023957600080fd5b50610254600480360381019061024f9190612089565b6108bf565b6040516102619190612533565b60405180910390f35b34801561027657600080fd5b50610291600480360381019061028c9190611e90565b610971565b60405161029e9190612880565b60405180910390f35b3480156102b357600080fd5b506102bc610a29565b005b3480156102ca57600080fd5b506102d3610ab1565b6040516102e09190612533565b60405180910390f35b3480156102f557600080fd5b506102fe610adb565b60405161030b91906125de565b60405180910390f35b34801561032057600080fd5b5061033b60048036038101906103369190611fbf565b610b6d565b005b34801561034957600080fd5b50610364600480360381019061035f9190611f44565b610b83565b005b34801561037257600080fd5b5061038d60048036038101906103889190612089565b610be5565b60405161039a91906125de565b60405180910390f35b3480156103af57600080fd5b506103ca60048036038101906103c59190611eb9565b610d37565b6040516103d791906125c3565b60405180910390f35b3480156103ec57600080fd5b5061040760048036038101906104029190611e90565b610dcb565b005b60007f80ac58cd000000000000000000000000000000000000000000000000000000007bffffffffffffffffffffffffffffffffffffffffffffffffffffffff1916827bffffffffffffffffffffffffffffffffffffffffffffffffffffffff191614806104d457507f5b5e139f000000000000000000000000000000000000000000000000000000007bffffffffffffffffffffffffffffffffffffffffffffffffffffffff1916827bffffffffffffffffffffffffffffffffffffffffffffffffffffffff1916145b806104e457506104e382610ed9565b5b9050919050565b6060600080546104fa90612aba565b80601f016020809104026020016040519081016040528092919081815260200182805461052690612aba565b80156105735780601f1061054857610100808354040283529160200191610573565b820191906000526020600020905b81548152906001019060200180831161055657829003601f168201915b5050505050905090565b600061058882610f43565b6105c7576040517f08c379a00000000000000000000000000000000000000000000000000000000081526004016105be906127c0565b60405180910390fd5b6004600083815260200190815260200160002060009054906101000a900473ffffffffffffffffffffffffffffffffffffffff169050919050565b600061060d826108bf565b90508073ffffffffffffffffffffffffffffffffffffffff168373ffffffffffffffffffffffffffffffffffffffff16141561067e576040517f08c379a000000000000000000000000000000000000000000000000000000000815260040161067590612840565b60405180910390fd5b8073ffffffffffffffffffffffffffffffffffffffff1661069d610faf565b73ffffffffffffffffffffffffffffffffffffffff1614806106cc57506106cb816106c6610faf565b610d37565b5b61070b576040517f08c379a000000000000000000000000000000000000000000000000000000000815260040161070290612700565b60405180910390fd5b6107158383610fb7565b505050565b60006107266008611070565b9050600060096107358361107e565b604051602001610746929190612504565b60405160208183030381529060405290506007821061079a576040517f08c379a0000000000000000000000000000000000000000000000000000000008152600401610791906126c0565b60405180910390fd5b6611c37937e080003410156107e4576040517f08c379a00000000000000000000000000000000000000000000000000000000081526004016107db906126e0565b60405180910390fd5b6107ee338361122b565b6107f88282611249565b6108026008610ec3565b7f46d4b2c9935b77ce518425f079032f1f25a3a3daf2ca751bc9901a150262b03b338360405161083392919061259a565b60405180910390a15050565b61085061084a610faf565b826112bd565b61088f576040517f08c379a000000000000000000000000000000000000000000000000000000000815260040161088690612860565b60405180910390fd5b61089a83838361139b565b505050565b6108ba83838360405180602001604052806000815250610b83565b505050565b6000806002600084815260200190815260200160002060009054906101000a900473ffffffffffffffffffffffffffffffffffffffff169050600073ffffffffffffffffffffffffffffffffffffffff168173ffffffffffffffffffffffffffffffffffffffff161415610968576040517f08c379a000000000000000000000000000000000000000000000000000000000815260040161095f90612740565b60405180910390fd5b80915050919050565b60008073ffffffffffffffffffffffffffffffffffffffff168273ffffffffffffffffffffffffffffffffffffffff1614156109e2576040517f08c379a00000000000000000000000000000000000000000000000000000000081526004016109d990612720565b60405180910390fd5b600360008373ffffffffffffffffffffffffffffffffffffffff1673ffffffffffffffffffffffffffffffffffffffff168152602001908152602001600020549050919050565b610a31610faf565b73ffffffffffffffffffffffffffffffffffffffff16610a4f610ab1565b73ffffffffffffffffffffffffffffffffffffffff1614610aa5576040517f08c379a0000000000000000000000000000000000000000000000000000000008152600401610a9c906127e0565b60405180910390fd5b610aaf60006115f7565b565b6000600760009054906101000a900473ffffffffffffffffffffffffffffffffffffffff16905090565b606060018054610aea90612aba565b80601f0160208091040260200160405190810160405280929190818152602001828054610b1690612aba565b8015610b635780601f10610b3857610100808354040283529160200191610b63565b820191906000526020600020905b815481529060010190602001808311610b4657829003601f168201915b5050505050905090565b610b7f610b78610faf565b83836116bd565b5050565b610b94610b8e610faf565b836112bd565b610bd3576040517f08c379a0000000000000000000000000000000000000000000000000000000008152600401610bca90612860565b60405180910390fd5b610bdf8484848461182a565b50505050565b6060610bf082610f43565b610c2f576040517f08c379a0000000000000000000000000000000000000000000000000000000008152600401610c26906127a0565b60405180910390fd5b6000600660008481526020019081526020016000208054610c4f90612aba565b80601f0160208091040260200160405190810160405280929190818152602001828054610c7b90612aba565b8015610cc85780601f10610c9d57610100808354040283529160200191610cc8565b820191906000526020600020905b815481529060010190602001808311610cab57829003601f168201915b505050505090506000610cd9611886565b9050600081511415610cef578192505050610d32565b600082511115610d24578082604051602001610d0c9291906124e0565b60405160208183030381529060405292505050610d32565b610d2d8461189d565b925050505b919050565b6000600560008473ffffffffffffffffffffffffffffffffffffffff1673ffffffffffffffffffffffffffffffffffffffff16815260200190815260200160002060008373ffffffffffffffffffffffffffffffffffffffff1673ffffffffffffffffffffffffffffffffffffffff16815260200190815260200160002060009054906101000a900460ff16905092915050565b610dd3610faf565b73ffffffffffffffffffffffffffffffffffffffff16610df1610ab1565b73ffffffffffffffffffffffffffffffffffffffff1614610e47576040517f08c379a0000000000000000000000000000000000000000000000000000000008152600401610e3e906127e0565b60405180910390fd5b600073ffffffffffffffffffffffffffffffffffffffff168173ffffffffffffffffffffffffffffffffffffffff161415610eb7576040517f08c379a0000000000000000000000000000000000000000000000000000000008152600401610eae90612620565b60405180910390fd5b610ec0816115f7565b50565b6001816000016000828254019250508190555050565b60007f01ffc9a7000000000000000000000000000000000000000000000000000000007bffffffffffffffffffffffffffffffffffffffffffffffffffffffff1916827bffffffffffffffffffffffffffffffffffffffffffffffffffffffff1916149050919050565b60008073ffffffffffffffffffffffffffffffffffffffff166002600084815260200190815260200160002060009054906101000a900473ffffffffffffffffffffffffffffffffffffffff1673ffffffffffffffffffffffffffffffffffffffff1614159050919050565b600033905090565b816004600083815260200190815260200160002060006101000a81548173ffffffffffffffffffffffffffffffffffffffff021916908373ffffffffffffffffffffffffffffffffffffffff160217905550808273ffffffffffffffffffffffffffffffffffffffff1661102a836108bf565b73ffffffffffffffffffffffffffffffffffffffff167f8c5be1e5ebec7d5bd14f71427d1e84f3dd0314c0f7b2291e5b200ac8c7c3b92560405160405180910390a45050565b600081600001549050919050565b606060008214156110c6576040518060400160405280600181526020017f30000000000000000000000000000000000000000000000000000000000000008152509050611226565b600082905060005b600082146110f85780806110e190612b1d565b915050600a826110f1919061299f565b91506110ce565b60008167ffffffffffffffff81111561113a577f4e487b7100000000000000000000000000000000000000000000000000000000600052604160045260246000fd5b6040519080825280601f01601f19166020018201604052801561116c5781602001600182028036833780820191505090505b5090505b6000851461121f5760018261118591906129d0565b9150600a856111949190612b66565b60306111a09190612949565b60f81b8183815181106111dc577f4e487b7100000000000000000000000000000000000000000000000000000000600052603260045260246000fd5b60200101907effffffffffffffffffffffffffffffffffffffffffffffffffffffffffffff1916908160001a905350600a85611218919061299f565b9450611170565b8093505050505b919050565b611245828260405180602001604052806000815250611944565b5050565b61125282610f43565b611291576040517f08c379a000000000000000000000000000000000000000000000000000000000815260040161128890612760565b60405180910390fd5b806006600084815260200190815260200160002090805190602001906112b8929190611d1c565b505050565b60006112c882610f43565b611307576040517f08c379a00000000000000000000000000000000000000000000000000000000081526004016112fe906126a0565b60405180910390fd5b6000611312836108bf565b90508073ffffffffffffffffffffffffffffffffffffffff168473ffffffffffffffffffffffffffffffffffffffff16148061138157508373ffffffffffffffffffffffffffffffffffffffff166113698461057d565b73ffffffffffffffffffffffffffffffffffffffff16145b8061139257506113918185610d37565b5b91505092915050565b8273ffffffffffffffffffffffffffffffffffffffff166113bb826108bf565b73ffffffffffffffffffffffffffffffffffffffff1614611411576040517f08c379a000000000000000000000000000000000000000000000000000000000815260040161140890612800565b60405180910390fd5b600073ffffffffffffffffffffffffffffffffffffffff168273ffffffffffffffffffffffffffffffffffffffff161415611481576040517f08c379a000000000000000000000000000000000000000000000000000000000815260040161147890612660565b60405180910390fd5b61148c83838361199f565b611497600082610fb7565b6001600360008573ffffffffffffffffffffffffffffffffffffffff1673ffffffffffffffffffffffffffffffffffffffff16815260200190815260200160002060008282546114e791906129d0565b925050819055506001600360008473ffffffffffffffffffffffffffffffffffffffff1673ffffffffffffffffffffffffffffffffffffffff168152602001908152602001600020600082825461153e9190612949565b92505081905550816002600083815260200190815260200160002060006101000a81548173ffffffffffffffffffffffffffffffffffffffff021916908373ffffffffffffffffffffffffffffffffffffffff160217905550808273ffffffffffffffffffffffffffffffffffffffff168473ffffffffffffffffffffffffffffffffffffffff167fddf252ad1be2c89b69c2b068fc378daa952ba7f163c4a11628f55a4df523b3ef60405160405180910390a4505050565b6000600760009054906101000a900473ffffffffffffffffffffffffffffffffffffffff16905081600760006101000a81548173ffffffffffffffffffffffffffffffffffffffff021916908373ffffffffffffffffffffffffffffffffffffffff1602179055508173ffffffffffffffffffffffffffffffffffffffff168173ffffffffffffffffffffffffffffffffffffffff167f8be0079c531659141344cd1fd0a4f28419497f9722a3daafe3b4186f6b6457e060405160405180910390a35050565b8173ffffffffffffffffffffffffffffffffffffffff168373ffffffffffffffffffffffffffffffffffffffff16141561172c576040517f08c379a000000000000000000000000000000000000000000000000000000000815260040161172390612680565b60405180910390fd5b80600560008573ffffffffffffffffffffffffffffffffffffffff1673ffffffffffffffffffffffffffffffffffffffff16815260200190815260200160002060008473ffffffffffffffffffffffffffffffffffffffff1673ffffffffffffffffffffffffffffffffffffffff16815260200190815260200160002060006101000a81548160ff0219169083151502179055508173ffffffffffffffffffffffffffffffffffffffff168373ffffffffffffffffffffffffffffffffffffffff167f17307eab39ab6107e8899845ad3d59bd9653f200f220920489ca2b5937696c318360405161181d91906125c3565b60405180910390a3505050565b61183584848461139b565b611841848484846119a4565b611880576040517f08c379a000000000000000000000000000000000000000000000000000000000815260040161187790612600565b60405180910390fd5b50505050565b606060405180602001604052806000815250905090565b60606118a882610f43565b6118e7576040517f08c379a00000000000000000000000000000000000000000000000000000000081526004016118de90612820565b60405180910390fd5b60006118f1611886565b90506000815111611911576040518060200160405280600081525061193c565b8061191b8461107e565b60405160200161192c9291906124e0565b6040516020818303038152906040525b915050919050565b61194e8383611b3b565b61195b60008484846119a4565b61199a576040517f08c379a000000000000000000000000000000000000000000000000000000000815260040161199190612600565b60405180910390fd5b505050565b505050565b60006119c58473ffffffffffffffffffffffffffffffffffffffff16611d09565b15611b2e578373ffffffffffffffffffffffffffffffffffffffff1663150b7a026119ee610faf565b8786866040518563ffffffff1660e01b8152600401611a10949392919061254e565b602060405180830381600087803b158015611a2a57600080fd5b505af1925050508015611a5b57506040513d601f19601f82011682018060405250810190611a589190612060565b60015b611ade573d8060008114611a8b576040519150601f19603f3d011682016040523d82523d6000602084013e611a90565b606091505b50600081511415611ad6576040517f08c379a0000000000000000000000000000000000000000000000000000000008152600401611acd90612600565b60405180910390fd5b805181602001fd5b63150b7a0260e01b7bffffffffffffffffffffffffffffffffffffffffffffffffffffffff1916817bffffffffffffffffffffffffffffffffffffffffffffffffffffffff191614915050611b33565b600190505b949350505050565b600073ffffffffffffffffffffffffffffffffffffffff168273ffffffffffffffffffffffffffffffffffffffff161415611bab576040517f08c379a0000000000000000000000000000000000000000000000000000000008152600401611ba290612780565b60405180910390fd5b611bb481610f43565b15611bf4576040517f08c379a0000000000000000000000000000000000000000000000000000000008152600401611beb90612640565b60405180910390fd5b611c006000838361199f565b6001600360008473ffffffffffffffffffffffffffffffffffffffff1673ffffffffffffffffffffffffffffffffffffffff1681526020019081526020016000206000828254611c509190612949565b92505081905550816002600083815260200190815260200160002060006101000a81548173ffffffffffffffffffffffffffffffffffffffff021916908373ffffffffffffffffffffffffffffffffffffffff160217905550808273ffffffffffffffffffffffffffffffffffffffff16600073ffffffffffffffffffffffffffffffffffffffff167fddf252ad1be2c89b69c2b068fc378daa952ba7f163c4a11628f55a4df523b3ef60405160405180910390a45050565b600080823b905060008111915050919050565b828054611d2890612aba565b90600052602060002090601f016020900481019282611d4a5760008555611d91565b82601f10611d6357805160ff1916838001178555611d91565b82800160010185558215611d91579182015b82811115611d90578251825591602001919060010190611d75565b5b509050611d9e9190611da2565b5090565b5b80821115611dbb576000816000905550600101611da3565b5090565b6000611dd2611dcd846128c0565b61289b565b905082815260208101848484011115611dea57600080fd5b611df5848285612a78565b509392505050565b600081359050611e0c816131fb565b92915050565b600081359050611e2181613212565b92915050565b600081359050611e3681613229565b92915050565b600081519050611e4b81613229565b92915050565b600082601f830112611e6257600080fd5b8135611e72848260208601611dbf565b91505092915050565b600081359050611e8a81613240565b92915050565b600060208284031215611ea257600080fd5b6000611eb084828501611dfd565b91505092915050565b60008060408385031215611ecc57600080fd5b6000611eda85828601611dfd565b9250506020611eeb85828601611dfd565b9150509250929050565b600080600060608486031215611f0a57600080fd5b6000611f1886828701611dfd565b9350506020611f2986828701611dfd565b9250506040611f3a86828701611e7b565b9150509250925092565b60008060008060808587031215611f5a57600080fd5b6000611f6887828801611dfd565b9450506020611f7987828801611dfd565b9350506040611f8a87828801611e7b565b925050606085013567ffffffffffffffff811115611fa757600080fd5b611fb387828801611e51565b91505092959194509250565b60008060408385031215611fd257600080fd5b6000611fe085828601611dfd565b9250506020611ff185828601611e12565b9150509250929050565b6000806040838503121561200e57600080fd5b600061201c85828601611dfd565b925050602061202d85828601611e7b565b9150509250929050565b60006020828403121561204957600080fd5b600061205784828501611e27565b91505092915050565b60006020828403121561207257600080fd5b600061208084828501611e3c565b91505092915050565b60006020828403121561209b57600080fd5b60006120a984828501611e7b565b91505092915050565b6120bb81612a04565b82525050565b6120ca81612a16565b82525050565b60006120db82612906565b6120e5818561291c565b93506120f5818560208601612a87565b6120fe81612c53565b840191505092915050565b600061211482612911565b61211e818561292d565b935061212e818560208601612a87565b61213781612c53565b840191505092915050565b600061214d82612911565b612157818561293e565b9350612167818560208601612a87565b80840191505092915050565b6000815461218081612aba565b61218a818661293e565b945060018216600081146121a557600181146121b6576121e9565b60ff198316865281860193506121e9565b6121bf856128f1565b60005b838110156121e1578154818901526001820191506020810190506121c2565b838801955050505b50505092915050565b60006121ff60328361292d565b915061220a82612c64565b604082019050919050565b600061222260268361292d565b915061222d82612cb3565b604082019050919050565b6000612245601c8361292d565b915061225082612d02565b602082019050919050565b600061226860248361292d565b915061227382612d2b565b604082019050919050565b600061228b60198361292d565b915061229682612d7a565b602082019050919050565b60006122ae602c8361292d565b91506122b982612da3565b604082019050919050565b60006122d160198361292d565b91506122dc82612df2565b602082019050919050565b60006122f460218361292d565b91506122ff82612e1b565b604082019050919050565b600061231760388361292d565b915061232282612e6a565b604082019050919050565b600061233a602a8361292d565b915061234582612eb9565b604082019050919050565b600061235d60298361292d565b915061236882612f08565b604082019050919050565b6000612380602e8361292d565b915061238b82612f57565b604082019050919050565b60006123a360208361292d565b91506123ae82612fa6565b602082019050919050565b60006123c660318361292d565b91506123d182612fcf565b604082019050919050565b60006123e9602c8361292d565b91506123f48261301e565b604082019050919050565b600061240c60058361293e565b91506124178261306d565b600582019050919050565b600061242f60208361292d565b915061243a82613096565b602082019050919050565b600061245260298361292d565b915061245d826130bf565b604082019050919050565b6000612475602f8361292d565b91506124808261310e565b604082019050919050565b600061249860218361292d565b91506124a38261315d565b604082019050919050565b60006124bb60318361292d565b91506124c6826131ac565b604082019050919050565b6124da81612a6e565b82525050565b60006124ec8285612142565b91506124f88284612142565b91508190509392505050565b60006125108285612173565b915061251c8284612142565b9150612527826123ff565b91508190509392505050565b600060208201905061254860008301846120b2565b92915050565b600060808201905061256360008301876120b2565b61257060208301866120b2565b61257d60408301856124d1565b818103606083015261258f81846120d0565b905095945050505050565b60006040820190506125af60008301856120b2565b6125bc60208301846124d1565b9392505050565b60006020820190506125d860008301846120c1565b92915050565b600060208201905081810360008301526125f88184612109565b905092915050565b60006020820190508181036000830152612619816121f2565b9050919050565b6000602082019050818103600083015261263981612215565b9050919050565b6000602082019050818103600083015261265981612238565b9050919050565b600060208201905081810360008301526126798161225b565b9050919050565b600060208201905081810360008301526126998161227e565b9050919050565b600060208201905081810360008301526126b9816122a1565b9050919050565b600060208201905081810360008301526126d9816122c4565b9050919050565b600060208201905081810360008301526126f9816122e7565b9050919050565b600060208201905081810360008301526127198161230a565b9050919050565b600060208201905081810360008301526127398161232d565b9050919050565b6000602082019050818103600083015261275981612350565b9050919050565b6000602082019050818103600083015261277981612373565b9050919050565b6000602082019050818103600083015261279981612396565b9050919050565b600060208201905081810360008301526127b9816123b9565b9050919050565b600060208201905081810360008301526127d9816123dc565b9050919050565b600060208201905081810360008301526127f981612422565b9050919050565b6000602082019050818103600083015261281981612445565b9050919050565b6000602082019050818103600083015261283981612468565b9050919050565b600060208201905081810360008301526128598161248b565b9050919050565b60006020820190508181036000830152612879816124ae565b9050919050565b600060208201905061289560008301846124d1565b92915050565b60006128a56128b6565b90506128b18282612aec565b919050565b6000604051905090565b600067ffffffffffffffff8211156128db576128da612c24565b5b6128e482612c53565b9050602081019050919050565b60008190508160005260206000209050919050565b600081519050919050565b600081519050919050565b600082825260208201905092915050565b600082825260208201905092915050565b600081905092915050565b600061295482612a6e565b915061295f83612a6e565b9250827fffffffffffffffffffffffffffffffffffffffffffffffffffffffffffffffff0382111561299457612993612b97565b5b828201905092915050565b60006129aa82612a6e565b91506129b583612a6e565b9250826129c5576129c4612bc6565b5b828204905092915050565b60006129db82612a6e565b91506129e683612a6e565b9250828210156129f9576129f8612b97565b5b828203905092915050565b6000612a0f82612a4e565b9050919050565b60008115159050919050565b60007fffffffff0000000000000000000000000000000000000000000000000000000082169050919050565b600073ffffffffffffffffffffffffffffffffffffffff82169050919050565b6000819050919050565b82818337600083830152505050565b60005b83811015612aa5578082015181840152602081019050612a8a565b83811115612ab4576000848401525b50505050565b60006002820490506001821680612ad257607f821691505b60208210811415612ae657612ae5612bf5565b5b50919050565b612af582612c53565b810181811067ffffffffffffffff82111715612b1457612b13612c24565b5b80604052505050565b6000612b2882612a6e565b91507fffffffffffffffffffffffffffffffffffffffffffffffffffffffffffffffff821415612b5b57612b5a612b97565b5b600182019050919050565b6000612b7182612a6e565b9150612b7c83612a6e565b925082612b8c57612b8b612bc6565b5b828206905092915050565b7f4e487b7100000000000000000000000000000000000000000000000000000000600052601160045260246000fd5b7f4e487b7100000000000000000000000000000000000000000000000000000000600052601260045260246000fd5b7f4e487b7100000000000000000000000000000000000000000000000000000000600052602260045260246000fd5b7f4e487b7100000000000000000000000000000000000000000000000000000000600052604160045260246000fd5b6000601f19601f8301169050919050565b7f4552433732313a207472616e7366657220746f206e6f6e20455243373231526560008201527f63656976657220696d706c656d656e7465720000000000000000000000000000602082015250565b7f4f776e61626c653a206e6577206f776e657220697320746865207a65726f206160008201527f6464726573730000000000000000000000000000000000000000000000000000602082015250565b7f4552433732313a20746f6b656e20616c7265616479206d696e74656400000000600082015250565b7f4552433732313a207472616e7366657220746f20746865207a65726f2061646460008201527f7265737300000000000000000000000000000000000000000000000000000000602082015250565b7f4552433732313a20617070726f766520746f2063616c6c657200000000000000600082015250565b7f4552433732313a206f70657261746f7220717565727920666f72206e6f6e657860008201527f697374656e7420746f6b656e0000000000000000000000000000000000000000602082015250565b7f4e6f206d6f726520617661696c61626c6520746f206d696e7400000000000000600082015250565b7f4e6f7420656e6f756768204554482073656e743a20636865636b20707269636560008201527f2e00000000000000000000000000000000000000000000000000000000000000602082015250565b7f4552433732313a20617070726f76652063616c6c6572206973206e6f74206f7760008201527f6e6572206e6f7220617070726f76656420666f7220616c6c0000000000000000602082015250565b7f4552433732313a2062616c616e636520717565727920666f7220746865207a6560008201527f726f206164647265737300000000000000000000000000000000000000000000602082015250565b7f4552433732313a206f776e657220717565727920666f72206e6f6e657869737460008201527f656e7420746f6b656e0000000000000000000000000000000000000000000000602082015250565b7f45524337323155524953746f726167653a2055524920736574206f66206e6f6e60008201527f6578697374656e7420746f6b656e000000000000000000000000000000000000602082015250565b7f4552433732313a206d696e7420746f20746865207a65726f2061646472657373600082015250565b7f45524337323155524953746f726167653a2055524920717565727920666f722060008201527f6e6f6e6578697374656e7420746f6b656e000000000000000000000000000000602082015250565b7f4552433732313a20617070726f76656420717565727920666f72206e6f6e657860008201527f697374656e7420746f6b656e0000000000000000000000000000000000000000602082015250565b7f2e6a736f6e000000000000000000000000000000000000000000000000000000600082015250565b7f4f776e61626c653a2063616c6c6572206973206e6f7420746865206f776e6572600082015250565b7f4552433732313a207472616e73666572206f6620746f6b656e2074686174206960008201527f73206e6f74206f776e0000000000000000000000000000000000000000000000602082015250565b7f4552433732314d657461646174613a2055524920717565727920666f72206e6f60008201527f6e6578697374656e7420746f6b656e0000000000000000000000000000000000602082015250565b7f4552433732313a20617070726f76616c20746f2063757272656e74206f776e6560008201527f7200000000000000000000000000000000000000000000000000000000000000602082015250565b7f4552433732313a207472616e736665722063616c6c6572206973206e6f74206f60008201527f776e6572206e6f7220617070726f766564000000000000000000000000000000602082015250565b61320481612a04565b811461320f57600080fd5b50565b61321b81612a16565b811461322657600080fd5b50565b61323281612a22565b811461323d57600080fd5b50565b61324981612a6e565b811461325457600080fd5b5056fea2646970667358221220872a69a207b63c876829fe4051297d063d6b397f681319ae0d9d0bfba02344be64736f6c63430008040033697066733a2f2f516d5637444577704a54316f764b74396172714c79357145674850416533747a6f7856534e503434455a646b67312f",
  "linkReferences": {},
  "deployedLinkReferences": {}
}