{
  "_format": "hh-sol-artifact-1",
  "contractName": "ClipArtNumber",
  "sourceName": "contracts/ClipArtNumber.sol",
  "abi": [
    {
      "inputs": [],
      "stateMutability": "nonpayable",
      "type": "constructor"
    },
    {
      "anonymous": false,
      "inputs": [
        {
          "indexed": true,
          "internalType": "address",
          "name": "owner",
          "type": "address"
        },
        {
          "indexed": true,
          "internalType": "address",
          "name": "approved",
          "type": "address"
        },
        {
          "indexed": true,
          "internalType": "uint256",
          "name": "tokenId",
          "type": "uint256"
        }
      ],
      "name": "Approval",
      "type": "event"
    },
    {
      "anonymous": false,
      "inputs": [
        {
          "indexed": true,
          "internalType": "address",
          "name": "owner",
          "type": "address"
        },
        {
          "indexed": true,
          "internalType": "address",
          "name": "operator",
          "type": "address"
        },
        {
          "indexed": false,
          "internalType": "bool",
          "name": "approved",
          "type": "bool"
        }
      ],
      "name": "ApprovalForAll",
      "type": "event"
    },
    {
      "anonymous": false,
      "inputs": [
        {
          "indexed": true,
          "internalType": "address",
          "name": "from",
          "type": "address"
        },
        {
          "indexed": true,
          "internalType": "address",
          "name": "to",
          "type": "address"
        },
        {
          "indexed": true,
          "internalType": "uint256",
          "name": "tokenId",
          "type": "uint256"
        }
      ],
      "name": "Transfer",
      "type": "event"
    },
    {
      "inputs": [
        {
          "internalType": "address",
          "name": "to",
          "type": "address"
        },
        {
          "internalType": "uint256",
          "name": "tokenId",
          "type": "uint256"
        }
      ],
      "name": "approve",
      "outputs": [],
      "stateMutability": "nonpayable",
      "type": "function"
    },
    {
      "inputs": [
        {
          "internalType": "address",
          "name": "owner",
          "type": "address"
        }
      ],
      "name": "balanceOf",
      "outputs": [
        {
          "internalType": "uint256",
          "name": "",
          "type": "uint256"
        }
      ],
      "stateMutability": "view",
      "type": "function"
    },
    {
      "inputs": [
        {
          "internalType": "uint256",
          "name": "tokenId",
          "type": "uint256"
        }
      ],
      "name": "getApproved",
      "outputs": [
        {
          "internalType": "address",
          "name": "",
          "type": "address"
        }
      ],
      "stateMutability": "view",
      "type": "function"
    },
    {
      "inputs": [
        {
          "internalType": "address",
          "name": "owner",
          "type": "address"
        },
        {
          "internalType": "address",
          "name": "operator",
          "type": "address"
        }
      ],
      "name": "isApprovedForAll",
      "outputs": [
        {
          "internalType": "bool",
          "name": "",
          "type": "bool"
        }
      ],
      "stateMutability": "view",
      "type": "function"
    },
    {
      "inputs": [],
      "name": "mintNFT",
      "outputs": [],
      "stateMutability": "nonpayable",
      "type": "function"
    },
    {
      "inputs": [],
      "name": "name",
      "outputs": [
        {
          "internalType": "string",
          "name": "",
          "type": "string"
        }
      ],
      "stateMutability": "view",
      "type": "function"
    },
    {
      "inputs": [
        {
          "internalType": "uint256",
          "name": "tokenId",
          "type": "uint256"
        }
      ],
      "name": "ownerOf",
      "outputs": [
        {
          "internalType": "address",
          "name": "",
          "type": "address"
        }
      ],
      "stateMutability": "view",
      "type": "function"
    },
    {
      "inputs": [
        {
          "internalType": "uint256",
          "name": "tokenId",
          "type": "uint256"
        }
      ],
      "name": "pickRandomFirstWord",
      "outputs": [
        {
          "internalType": "string",
          "name": "",
          "type": "string"
        }
      ],
      "stateMutability": "view",
      "type": "function"
    },
    {
      "inputs": [
        {
          "internalType": "uint256",
          "name": "tokenId",
          "type": "uint256"
        }
      ],
      "name": "pickRandomSecondWord",
      "outputs": [
        {
          "internalType": "string",
          "name": "",
          "type": "string"
        }
      ],
      "stateMutability": "view",
      "type": "function"
    },
    {
      "inputs": [
        {
          "internalType": "uint256",
          "name": "tokenId",
          "type": "uint256"
        }
      ],
      "name": "pickRandomThirdWord",
      "outputs": [
        {
          "internalType": "string",
          "name": "",
          "type": "string"
        }
      ],
      "stateMutability": "view",
      "type": "function"
    },
    {
      "inputs": [
        {
          "internalType": "address",
          "name": "from",
          "type": "address"
        },
        {
          "internalType": "address",
          "name": "to",
          "type": "address"
        },
        {
          "internalType": "uint256",
          "name": "tokenId",
          "type": "uint256"
        }
      ],
      "name": "safeTransferFrom",
      "outputs": [],
      "stateMutability": "nonpayable",
      "type": "function"
    },
    {
      "inputs": [
        {
          "internalType": "address",
          "name": "from",
          "type": "address"
        },
        {
          "internalType": "address",
          "name": "to",
          "type": "address"
        },
        {
          "internalType": "uint256",
          "name": "tokenId",
          "type": "uint256"
        },
        {
          "internalType": "bytes",
          "name": "_data",
          "type": "bytes"
        }
      ],
      "name": "safeTransferFrom",
      "outputs": [],
      "stateMutability": "nonpayable",
      "type": "function"
    },
    {
      "inputs": [
        {
          "internalType": "address",
          "name": "operator",
          "type": "address"
        },
        {
          "internalType": "bool",
          "name": "approved",
          "type": "bool"
        }
      ],
      "name": "setApprovalForAll",
      "outputs": [],
      "stateMutability": "nonpayable",
      "type": "function"
    },
    {
      "inputs": [
        {
          "internalType": "bytes4",
          "name": "interfaceId",
          "type": "bytes4"
        }
      ],
      "name": "supportsInterface",
      "outputs": [
        {
          "internalType": "bool",
          "name": "",
          "type": "bool"
        }
      ],
      "stateMutability": "view",
      "type": "function"
    },
    {
      "inputs": [],
      "name": "symbol",
      "outputs": [
        {
          "internalType": "string",
          "name": "",
          "type": "string"
        }
      ],
      "stateMutability": "view",
      "type": "function"
    },
    {
      "inputs": [
        {
          "internalType": "uint256",
          "name": "tokenId",
          "type": "uint256"
        }
      ],
      "name": "tokenURI",
      "outputs": [
        {
          "internalType": "string",
          "name": "",
          "type": "string"
        }
      ],
      "stateMutability": "view",
      "type": "function"
    },
    {
      "inputs": [
        {
          "internalType": "address",
          "name": "from",
          "type": "address"
        },
        {
          "internalType": "address",
          "name": "to",
          "type": "address"
        },
        {
          "internalType": "uint256",
          "name": "tokenId",
          "type": "uint256"
        }
      ],
      "name": "transferFrom",
      "outputs": [],
      "stateMutability": "nonpayable",
      "type": "function"
    }
  ],
  "bytecode": "0x608060405260405180610160016040528061012f815260200162003dca61012f913960089080519060200190620000389291906200067e565b506040518060c001604052806040518060400160405280600981526020017f594f55525f574f5244000000000000000000000000000000000000000000000081525081526020016040518060400160405280600981526020017f594f55525f574f5244000000000000000000000000000000000000000000000081525081526020016040518060400160405280600981526020017f594f55525f574f5244000000000000000000000000000000000000000000000081525081526020016040518060400160405280600981526020017f594f55525f574f5244000000000000000000000000000000000000000000000081525081526020016040518060400160405280600981526020017f594f55525f574f5244000000000000000000000000000000000000000000000081525081526020016040518060400160405280600981526020017f594f55525f574f524400000000000000000000000000000000000000000000008152508152506009906006620001b69291906200070f565b506040518060c001604052806040518060400160405280600981526020017f594f55525f574f5244000000000000000000000000000000000000000000000081525081526020016040518060400160405280600981526020017f594f55525f574f5244000000000000000000000000000000000000000000000081525081526020016040518060400160405280600981526020017f594f55525f574f5244000000000000000000000000000000000000000000000081525081526020016040518060400160405280600981526020017f594f55525f574f5244000000000000000000000000000000000000000000000081525081526020016040518060400160405280600981526020017f594f55525f574f5244000000000000000000000000000000000000000000000081525081526020016040518060400160405280600981526020017f594f55525f574f52440000000000000000000000000000000000000000000000815250815250600a906006620003349291906200070f565b506040518060c001604052806040518060400160405280600981526020017f594f55525f574f5244000000000000000000000000000000000000000000000081525081526020016040518060400160405280600981526020017f594f55525f574f5244000000000000000000000000000000000000000000000081525081526020016040518060400160405280600981526020017f594f55525f574f5244000000000000000000000000000000000000000000000081525081526020016040518060400160405280600981526020017f594f55525f574f5244000000000000000000000000000000000000000000000081525081526020016040518060400160405280600981526020017f594f55525f574f5244000000000000000000000000000000000000000000000081525081526020016040518060400160405280600981526020017f594f55525f574f52440000000000000000000000000000000000000000000000815250815250600b906006620004b29291906200070f565b50348015620004c057600080fd5b506040518060400160405280600d81526020017f436c69704172744e756d626572000000000000000000000000000000000000008152506040518060400160405280600681526020017f434c5041525400000000000000000000000000000000000000000000000000008152508160009080519060200190620005459291906200067e565b5080600190805190602001906200055e9291906200067e565b505050620005ac6040518060400160405280601e81526020017f54686973206973206d79204e465420636f6e74726163742e20576f6168210000815250620005b260201b620010391760201c565b62000930565b6200065281604051602401620005c9919062000844565b6040516020818303038152906040527f41304fac000000000000000000000000000000000000000000000000000000007bffffffffffffffffffffffffffffffffffffffffffffffffffffffff19166020820180517bffffffffffffffffffffffffffffffffffffffffffffffffffffffff83818316178352505050506200065560201b60201c565b50565b60008151905060006a636f6e736f6c652e6c6f679050602083016000808483855afa5050505050565b8280546200068c90620008ba565b90600052602060002090601f016020900481019282620006b05760008555620006fc565b82601f10620006cb57805160ff1916838001178555620006fc565b82800160010185558215620006fc579182015b82811115620006fb578251825591602001919060010190620006de565b5b5090506200070b919062000776565b5090565b82805482825590600052602060002090810192821562000763579160200282015b8281111562000762578251829080519060200190620007519291906200067e565b509160200191906001019062000730565b5b50905062000772919062000795565b5090565b5b808211156200079157600081600090555060010162000777565b5090565b5b80821115620007b95760008181620007af9190620007bd565b5060010162000796565b5090565b508054620007cb90620008ba565b6000825580601f10620007df575062000800565b601f016020900490600052602060002090810190620007ff919062000776565b5b50565b6000620008108262000868565b6200081c818562000873565b93506200082e81856020860162000884565b62000839816200091f565b840191505092915050565b6000602082019050818103600083015262000860818462000803565b905092915050565b600081519050919050565b600082825260208201905092915050565b60005b83811015620008a457808201518184015260208101905062000887565b83811115620008b4576000848401525b50505050565b60006002820490506001821680620008d357607f821691505b60208210811415620008ea57620008e9620008f0565b5b50919050565b7f4e487b7100000000000000000000000000000000000000000000000000000000600052602260045260246000fd5b6000601f19601f8301169050919050565b61348a80620009406000396000f3fe608060405234801561001057600080fd5b506004361061010b5760003560e01c80636352211e116100a2578063b187301f11610071578063b187301f146102b6578063b88d4fde146102e6578063c575757a14610302578063c87b56dd14610332578063e985e9c5146103625761010b565b80636352211e1461021c57806370a082311461024c57806395d89b411461027c578063a22cb4651461029a5761010b565b806314f710fe116100de57806314f710fe146101aa57806323b872dd146101b45780632de38d68146101d057806342842e0e146102005761010b565b806301ffc9a71461011057806306fdde0314610140578063081812fc1461015e578063095ea7b31461018e575b600080fd5b61012a6004803603810190610125919061227b565b610392565b6040516101379190612852565b60405180910390f35b610148610474565b604051610155919061286d565b60405180910390f35b610178600480360381019061017391906122cd565b610506565b60405161018591906127eb565b60405180910390f35b6101a860048036038101906101a3919061223f565b61058b565b005b6101b26106a3565b005b6101ce60048036038101906101c99190612139565b610805565b005b6101ea60048036038101906101e591906122cd565b610865565b6040516101f7919061286d565b60405180910390f35b61021a60048036038101906102159190612139565b610983565b005b610236600480360381019061023191906122cd565b6109a3565b60405161024391906127eb565b60405180910390f35b610266600480360381019061026191906120d4565b610a55565b6040516102739190612acd565b60405180910390f35b610284610b0d565b604051610291919061286d565b60405180910390f35b6102b460048036038101906102af9190612203565b610b9f565b005b6102d060048036038101906102cb91906122cd565b610bb5565b6040516102dd919061286d565b60405180910390f35b61030060048036038101906102fb9190612188565b610cd3565b005b61031c600480360381019061031791906122cd565b610d35565b604051610329919061286d565b60405180910390f35b61034c600480360381019061034791906122cd565b610e53565b604051610359919061286d565b60405180910390f35b61037c600480360381019061037791906120fd565b610fa5565b6040516103899190612852565b60405180910390f35b60007f80ac58cd000000000000000000000000000000000000000000000000000000007bffffffffffffffffffffffffffffffffffffffffffffffffffffffff1916827bffffffffffffffffffffffffffffffffffffffffffffffffffffffff1916148061045d57507f5b5e139f000000000000000000000000000000000000000000000000000000007bffffffffffffffffffffffffffffffffffffffffffffffffffffffff1916827bffffffffffffffffffffffffffffffffffffffffffffffffffffffff1916145b8061046d575061046c826110d2565b5b9050919050565b60606000805461048390612d07565b80601f01602080910402602001604051908101604052809291908181526020018280546104af90612d07565b80156104fc5780601f106104d1576101008083540402835291602001916104fc565b820191906000526020600020905b8154815290600101906020018083116104df57829003601f168201915b5050505050905090565b60006105118261113c565b610550576040517f08c379a000000000000000000000000000000000000000000000000000000000815260040161054790612a2d565b60405180910390fd5b6004600083815260200190815260200160002060009054906101000a900473ffffffffffffffffffffffffffffffffffffffff169050919050565b6000610596826109a3565b90508073ffffffffffffffffffffffffffffffffffffffff168373ffffffffffffffffffffffffffffffffffffffff161415610607576040517f08c379a00000000000000000000000000000000000000000000000000000000081526004016105fe90612a8d565b60405180910390fd5b8073ffffffffffffffffffffffffffffffffffffffff166106266111a8565b73ffffffffffffffffffffffffffffffffffffffff16148061065557506106548161064f6111a8565b610fa5565b5b610694576040517f08c379a000000000000000000000000000000000000000000000000000000000815260040161068b9061296d565b60405180910390fd5b61069e83836111b0565b505050565b60006106af6007611269565b905060006106bc82610865565b905060006106c983610bb5565b905060006106d684610d35565b9050600060088484846040516020016106f2949392919061273c565b60405160208183030381529060405290506107416040518060400160405280601581526020017f0a2d2d2d2d2d2d2d2d2d2d2d2d2d2d2d2d2d2d2d2d0000000000000000000000815250611039565b61074a81611039565b6107886040518060400160405280601581526020017f2d2d2d2d2d2d2d2d2d2d2d2d2d2d2d2d2d2d2d2d0a0000000000000000000000815250611039565b6107923386611277565b6107d1856040518060400160405280600481526020017f626c616800000000000000000000000000000000000000000000000000000000815250611295565b6107db6007611309565b6107fe60405180606001604052806025815260200161343060259139863361131f565b5050505050565b6108166108106111a8565b826113be565b610855576040517f08c379a000000000000000000000000000000000000000000000000000000000815260040161084c90612aad565b60405180910390fd5b61086083838361149c565b505050565b60606000610899610875846116f8565b60405160200161088591906127c9565b6040516020818303038152906040526118a5565b9050600980549050816108ac9190612db3565b9050600981815481106108e8577f4e487b7100000000000000000000000000000000000000000000000000000000600052603260045260246000fd5b9060005260206000200180546108fd90612d07565b80601f016020809104026020016040519081016040528092919081815260200182805461092990612d07565b80156109765780601f1061094b57610100808354040283529160200191610976565b820191906000526020600020905b81548152906001019060200180831161095957829003601f168201915b5050505050915050919050565b61099e83838360405180602001604052806000815250610cd3565b505050565b6000806002600084815260200190815260200160002060009054906101000a900473ffffffffffffffffffffffffffffffffffffffff169050600073ffffffffffffffffffffffffffffffffffffffff168173ffffffffffffffffffffffffffffffffffffffff161415610a4c576040517f08c379a0000000000000000000000000000000000000000000000000000000008152600401610a43906129ad565b60405180910390fd5b80915050919050565b60008073ffffffffffffffffffffffffffffffffffffffff168273ffffffffffffffffffffffffffffffffffffffff161415610ac6576040517f08c379a0000000000000000000000000000000000000000000000000000000008152600401610abd9061298d565b60405180910390fd5b600360008373ffffffffffffffffffffffffffffffffffffffff1673ffffffffffffffffffffffffffffffffffffffff168152602001908152602001600020549050919050565b606060018054610b1c90612d07565b80601f0160208091040260200160405190810160405280929190818152602001828054610b4890612d07565b8015610b955780601f10610b6a57610100808354040283529160200191610b95565b820191906000526020600020905b815481529060010190602001808311610b7857829003601f168201915b5050505050905090565b610bb1610baa6111a8565b83836118d8565b5050565b60606000610be9610bc5846116f8565b604051602001610bd591906127a7565b6040516020818303038152906040526118a5565b9050600a8054905081610bfc9190612db3565b9050600a8181548110610c38577f4e487b7100000000000000000000000000000000000000000000000000000000600052603260045260246000fd5b906000526020600020018054610c4d90612d07565b80601f0160208091040260200160405190810160405280929190818152602001828054610c7990612d07565b8015610cc65780601f10610c9b57610100808354040283529160200191610cc6565b820191906000526020600020905b815481529060010190602001808311610ca957829003601f168201915b5050505050915050919050565b610ce4610cde6111a8565b836113be565b610d23576040517f08c379a0000000000000000000000000000000000000000000000000000000008152600401610d1a90612aad565b60405180910390fd5b610d2f84848484611a45565b50505050565b60606000610d69610d45846116f8565b604051602001610d559190612785565b6040516020818303038152906040526118a5565b9050600b8054905081610d7c9190612db3565b9050600b8181548110610db8577f4e487b7100000000000000000000000000000000000000000000000000000000600052603260045260246000fd5b906000526020600020018054610dcd90612d07565b80601f0160208091040260200160405190810160405280929190818152602001828054610df990612d07565b8015610e465780601f10610e1b57610100808354040283529160200191610e46565b820191906000526020600020905b815481529060010190602001808311610e2957829003601f168201915b5050505050915050919050565b6060610e5e8261113c565b610e9d576040517f08c379a0000000000000000000000000000000000000000000000000000000008152600401610e9490612a0d565b60405180910390fd5b6000600660008481526020019081526020016000208054610ebd90612d07565b80601f0160208091040260200160405190810160405280929190818152602001828054610ee990612d07565b8015610f365780601f10610f0b57610100808354040283529160200191610f36565b820191906000526020600020905b815481529060010190602001808311610f1957829003601f168201915b505050505090506000610f47611aa1565b9050600081511415610f5d578192505050610fa0565b600082511115610f92578082604051602001610f7a929190612718565b60405160208183030381529060405292505050610fa0565b610f9b84611ab8565b925050505b919050565b6000600560008473ffffffffffffffffffffffffffffffffffffffff1673ffffffffffffffffffffffffffffffffffffffff16815260200190815260200160002060008373ffffffffffffffffffffffffffffffffffffffff1673ffffffffffffffffffffffffffffffffffffffff16815260200190815260200160002060009054906101000a900460ff16905092915050565b6110cf8160405160240161104d919061286d565b6040516020818303038152906040527f41304fac000000000000000000000000000000000000000000000000000000007bffffffffffffffffffffffffffffffffffffffffffffffffffffffff19166020820180517bffffffffffffffffffffffffffffffffffffffffffffffffffffffff8381831617835250505050611b5f565b50565b60007f01ffc9a7000000000000000000000000000000000000000000000000000000007bffffffffffffffffffffffffffffffffffffffffffffffffffffffff1916827bffffffffffffffffffffffffffffffffffffffffffffffffffffffff1916149050919050565b60008073ffffffffffffffffffffffffffffffffffffffff166002600084815260200190815260200160002060009054906101000a900473ffffffffffffffffffffffffffffffffffffffff1673ffffffffffffffffffffffffffffffffffffffff1614159050919050565b600033905090565b816004600083815260200190815260200160002060006101000a81548173ffffffffffffffffffffffffffffffffffffffff021916908373ffffffffffffffffffffffffffffffffffffffff160217905550808273ffffffffffffffffffffffffffffffffffffffff16611223836109a3565b73ffffffffffffffffffffffffffffffffffffffff167f8c5be1e5ebec7d5bd14f71427d1e84f3dd0314c0f7b2291e5b200ac8c7c3b92560405160405180910390a45050565b600081600001549050919050565b611291828260405180602001604052806000815250611b88565b5050565b61129e8261113c565b6112dd576040517f08c379a00000000000000000000000000000000000000000000000000000000081526004016112d4906129cd565b60405180910390fd5b80600660008481526020019081526020016000209080519060200190611304929190611f60565b505050565b6001816000016000828254019250508190555050565b6113b98383836040516024016113379392919061288f565b6040516020818303038152906040527fe3849f79000000000000000000000000000000000000000000000000000000007bffffffffffffffffffffffffffffffffffffffffffffffffffffffff19166020820180517bffffffffffffffffffffffffffffffffffffffffffffffffffffffff8381831617835250505050611b5f565b505050565b60006113c98261113c565b611408576040517f08c379a00000000000000000000000000000000000000000000000000000000081526004016113ff9061294d565b60405180910390fd5b6000611413836109a3565b90508073ffffffffffffffffffffffffffffffffffffffff168473ffffffffffffffffffffffffffffffffffffffff16148061148257508373ffffffffffffffffffffffffffffffffffffffff1661146a84610506565b73ffffffffffffffffffffffffffffffffffffffff16145b8061149357506114928185610fa5565b5b91505092915050565b8273ffffffffffffffffffffffffffffffffffffffff166114bc826109a3565b73ffffffffffffffffffffffffffffffffffffffff1614611512576040517f08c379a000000000000000000000000000000000000000000000000000000000815260040161150990612a4d565b60405180910390fd5b600073ffffffffffffffffffffffffffffffffffffffff168273ffffffffffffffffffffffffffffffffffffffff161415611582576040517f08c379a00000000000000000000000000000000000000000000000000000000081526004016115799061290d565b60405180910390fd5b61158d838383611be3565b6115986000826111b0565b6001600360008573ffffffffffffffffffffffffffffffffffffffff1673ffffffffffffffffffffffffffffffffffffffff16815260200190815260200160002060008282546115e89190612c1d565b925050819055506001600360008473ffffffffffffffffffffffffffffffffffffffff1673ffffffffffffffffffffffffffffffffffffffff168152602001908152602001600020600082825461163f9190612b96565b92505081905550816002600083815260200190815260200160002060006101000a81548173ffffffffffffffffffffffffffffffffffffffff021916908373ffffffffffffffffffffffffffffffffffffffff160217905550808273ffffffffffffffffffffffffffffffffffffffff168473ffffffffffffffffffffffffffffffffffffffff167fddf252ad1be2c89b69c2b068fc378daa952ba7f163c4a11628f55a4df523b3ef60405160405180910390a4505050565b60606000821415611740576040518060400160405280600181526020017f300000000000000000000000000000000000000000000000000000000000000081525090506118a0565b600082905060005b6000821461177257808061175b90612d6a565b915050600a8261176b9190612bec565b9150611748565b60008167ffffffffffffffff8111156117b4577f4e487b7100000000000000000000000000000000000000000000000000000000600052604160045260246000fd5b6040519080825280601f01601f1916602001820160405280156117e65781602001600182028036833780820191505090505b5090505b60008514611899576001826117ff9190612c1d565b9150600a8561180e9190612db3565b603061181a9190612b96565b60f81b818381518110611856577f4e487b7100000000000000000000000000000000000000000000000000000000600052603260045260246000fd5b60200101907effffffffffffffffffffffffffffffffffffffffffffffffffffffffffffff1916908160001a905350600a856118929190612bec565b94506117ea565b8093505050505b919050565b6000816040516020016118b89190612701565b6040516020818303038152906040528051906020012060001c9050919050565b8173ffffffffffffffffffffffffffffffffffffffff168373ffffffffffffffffffffffffffffffffffffffff161415611947576040517f08c379a000000000000000000000000000000000000000000000000000000000815260040161193e9061292d565b60405180910390fd5b80600560008573ffffffffffffffffffffffffffffffffffffffff1673ffffffffffffffffffffffffffffffffffffffff16815260200190815260200160002060008473ffffffffffffffffffffffffffffffffffffffff1673ffffffffffffffffffffffffffffffffffffffff16815260200190815260200160002060006101000a81548160ff0219169083151502179055508173ffffffffffffffffffffffffffffffffffffffff168373ffffffffffffffffffffffffffffffffffffffff167f17307eab39ab6107e8899845ad3d59bd9653f200f220920489ca2b5937696c3183604051611a389190612852565b60405180910390a3505050565b611a5084848461149c565b611a5c84848484611be8565b611a9b576040517f08c379a0000000000000000000000000000000000000000000000000000000008152600401611a92906128cd565b60405180910390fd5b50505050565b606060405180602001604052806000815250905090565b6060611ac38261113c565b611b02576040517f08c379a0000000000000000000000000000000000000000000000000000000008152600401611af990612a6d565b60405180910390fd5b6000611b0c611aa1565b90506000815111611b2c5760405180602001604052806000815250611b57565b80611b36846116f8565b604051602001611b47929190612718565b6040516020818303038152906040525b915050919050565b60008151905060006a636f6e736f6c652e6c6f679050602083016000808483855afa5050505050565b611b928383611d7f565b611b9f6000848484611be8565b611bde576040517f08c379a0000000000000000000000000000000000000000000000000000000008152600401611bd5906128cd565b60405180910390fd5b505050565b505050565b6000611c098473ffffffffffffffffffffffffffffffffffffffff16611f4d565b15611d72578373ffffffffffffffffffffffffffffffffffffffff1663150b7a02611c326111a8565b8786866040518563ffffffff1660e01b8152600401611c549493929190612806565b602060405180830381600087803b158015611c6e57600080fd5b505af1925050508015611c9f57506040513d601f19601f82011682018060405250810190611c9c91906122a4565b60015b611d22573d8060008114611ccf576040519150601f19603f3d011682016040523d82523d6000602084013e611cd4565b606091505b50600081511415611d1a576040517f08c379a0000000000000000000000000000000000000000000000000000000008152600401611d11906128cd565b60405180910390fd5b805181602001fd5b63150b7a0260e01b7bffffffffffffffffffffffffffffffffffffffffffffffffffffffff1916817bffffffffffffffffffffffffffffffffffffffffffffffffffffffff191614915050611d77565b600190505b949350505050565b600073ffffffffffffffffffffffffffffffffffffffff168273ffffffffffffffffffffffffffffffffffffffff161415611def576040517f08c379a0000000000000000000000000000000000000000000000000000000008152600401611de6906129ed565b60405180910390fd5b611df88161113c565b15611e38576040517f08c379a0000000000000000000000000000000000000000000000000000000008152600401611e2f906128ed565b60405180910390fd5b611e4460008383611be3565b6001600360008473ffffffffffffffffffffffffffffffffffffffff1673ffffffffffffffffffffffffffffffffffffffff1681526020019081526020016000206000828254611e949190612b96565b92505081905550816002600083815260200190815260200160002060006101000a81548173ffffffffffffffffffffffffffffffffffffffff021916908373ffffffffffffffffffffffffffffffffffffffff160217905550808273ffffffffffffffffffffffffffffffffffffffff16600073ffffffffffffffffffffffffffffffffffffffff167fddf252ad1be2c89b69c2b068fc378daa952ba7f163c4a11628f55a4df523b3ef60405160405180910390a45050565b600080823b905060008111915050919050565b828054611f6c90612d07565b90600052602060002090601f016020900481019282611f8e5760008555611fd5565b82601f10611fa757805160ff1916838001178555611fd5565b82800160010185558215611fd5579182015b82811115611fd4578251825591602001919060010190611fb9565b5b509050611fe29190611fe6565b5090565b5b80821115611fff576000816000905550600101611fe7565b5090565b600061201661201184612b0d565b612ae8565b90508281526020810184848401111561202e57600080fd5b612039848285612cc5565b509392505050565b600081359050612050816133d3565b92915050565b600081359050612065816133ea565b92915050565b60008135905061207a81613401565b92915050565b60008151905061208f81613401565b92915050565b600082601f8301126120a657600080fd5b81356120b6848260208601612003565b91505092915050565b6000813590506120ce81613418565b92915050565b6000602082840312156120e657600080fd5b60006120f484828501612041565b91505092915050565b6000806040838503121561211057600080fd5b600061211e85828601612041565b925050602061212f85828601612041565b9150509250929050565b60008060006060848603121561214e57600080fd5b600061215c86828701612041565b935050602061216d86828701612041565b925050604061217e868287016120bf565b9150509250925092565b6000806000806080858703121561219e57600080fd5b60006121ac87828801612041565b94505060206121bd87828801612041565b93505060406121ce878288016120bf565b925050606085013567ffffffffffffffff8111156121eb57600080fd5b6121f787828801612095565b91505092959194509250565b6000806040838503121561221657600080fd5b600061222485828601612041565b925050602061223585828601612056565b9150509250929050565b6000806040838503121561225257600080fd5b600061226085828601612041565b9250506020612271858286016120bf565b9150509250929050565b60006020828403121561228d57600080fd5b600061229b8482850161206b565b91505092915050565b6000602082840312156122b657600080fd5b60006122c484828501612080565b91505092915050565b6000602082840312156122df57600080fd5b60006122ed848285016120bf565b91505092915050565b6122ff81612c51565b82525050565b61230e81612c63565b82525050565b600061231f82612b53565b6123298185612b69565b9350612339818560208601612cd4565b61234281612ea0565b840191505092915050565b600061235882612b5e565b6123628185612b7a565b9350612372818560208601612cd4565b61237b81612ea0565b840191505092915050565b600061239182612b5e565b61239b8185612b8b565b93506123ab818560208601612cd4565b80840191505092915050565b600081546123c481612d07565b6123ce8186612b8b565b945060018216600081146123e957600181146123fa5761242d565b60ff1983168652818601935061242d565b61240385612b3e565b60005b8381101561242557815481890152600182019150602081019050612406565b838801955050505b50505092915050565b6000612443603283612b7a565b915061244e82612eb1565b604082019050919050565b6000612466601c83612b7a565b915061247182612f00565b602082019050919050565b6000612489600a83612b8b565b915061249482612f29565b600a82019050919050565b60006124ac602483612b7a565b91506124b782612f52565b604082019050919050565b60006124cf601983612b7a565b91506124da82612fa1565b602082019050919050565b60006124f2600b83612b8b565b91506124fd82612fca565b600b82019050919050565b6000612515602c83612b7a565b915061252082612ff3565b604082019050919050565b6000612538600d83612b8b565b915061254382613042565b600d82019050919050565b600061255b603883612b7a565b91506125668261306b565b604082019050919050565b600061257e602a83612b7a565b9150612589826130ba565b604082019050919050565b60006125a1602983612b7a565b91506125ac82613109565b604082019050919050565b60006125c4602e83612b7a565b91506125cf82613158565b604082019050919050565b60006125e7602083612b7a565b91506125f2826131a7565b602082019050919050565b600061260a603183612b7a565b9150612615826131d0565b604082019050919050565b600061262d602c83612b7a565b91506126388261321f565b604082019050919050565b6000612650602983612b7a565b915061265b8261326e565b604082019050919050565b6000612673602f83612b7a565b915061267e826132bd565b604082019050919050565b6000612696602183612b7a565b91506126a18261330c565b604082019050919050565b60006126b9600a83612b8b565b91506126c48261335b565b600a82019050919050565b60006126dc603183612b7a565b91506126e782613384565b604082019050919050565b6126fb81612cbb565b82525050565b600061270d8284612386565b915081905092915050565b60006127248285612386565b91506127308284612386565b91508190509392505050565b600061274882876123b7565b91506127548286612386565b91506127608285612386565b915061276c8284612386565b91506127778261252b565b915081905095945050505050565b60006127908261247c565b915061279c8284612386565b915081905092915050565b60006127b2826124e5565b91506127be8284612386565b915081905092915050565b60006127d4826126ac565b91506127e08284612386565b915081905092915050565b600060208201905061280060008301846122f6565b92915050565b600060808201905061281b60008301876122f6565b61282860208301866122f6565b61283560408301856126f2565b81810360608301526128478184612314565b905095945050505050565b60006020820190506128676000830184612305565b92915050565b60006020820190508181036000830152612887818461234d565b905092915050565b600060608201905081810360008301526128a9818661234d565b90506128b860208301856126f2565b6128c560408301846122f6565b949350505050565b600060208201905081810360008301526128e681612436565b9050919050565b6000602082019050818103600083015261290681612459565b9050919050565b600060208201905081810360008301526129268161249f565b9050919050565b60006020820190508181036000830152612946816124c2565b9050919050565b6000602082019050818103600083015261296681612508565b9050919050565b600060208201905081810360008301526129868161254e565b9050919050565b600060208201905081810360008301526129a681612571565b9050919050565b600060208201905081810360008301526129c681612594565b9050919050565b600060208201905081810360008301526129e6816125b7565b9050919050565b60006020820190508181036000830152612a06816125da565b9050919050565b60006020820190508181036000830152612a26816125fd565b9050919050565b60006020820190508181036000830152612a4681612620565b9050919050565b60006020820190508181036000830152612a6681612643565b9050919050565b60006020820190508181036000830152612a8681612666565b9050919050565b60006020820190508181036000830152612aa681612689565b9050919050565b60006020820190508181036000830152612ac6816126cf565b9050919050565b6000602082019050612ae260008301846126f2565b92915050565b6000612af2612b03565b9050612afe8282612d39565b919050565b6000604051905090565b600067ffffffffffffffff821115612b2857612b27612e71565b5b612b3182612ea0565b9050602081019050919050565b60008190508160005260206000209050919050565b600081519050919050565b600081519050919050565b600082825260208201905092915050565b600082825260208201905092915050565b600081905092915050565b6000612ba182612cbb565b9150612bac83612cbb565b9250827fffffffffffffffffffffffffffffffffffffffffffffffffffffffffffffffff03821115612be157612be0612de4565b5b828201905092915050565b6000612bf782612cbb565b9150612c0283612cbb565b925082612c1257612c11612e13565b5b828204905092915050565b6000612c2882612cbb565b9150612c3383612cbb565b925082821015612c4657612c45612de4565b5b828203905092915050565b6000612c5c82612c9b565b9050919050565b60008115159050919050565b60007fffffffff0000000000000000000000000000000000000000000000000000000082169050919050565b600073ffffffffffffffffffffffffffffffffffffffff82169050919050565b6000819050919050565b82818337600083830152505050565b60005b83811015612cf2578082015181840152602081019050612cd7565b83811115612d01576000848401525b50505050565b60006002820490506001821680612d1f57607f821691505b60208210811415612d3357612d32612e42565b5b50919050565b612d4282612ea0565b810181811067ffffffffffffffff82111715612d6157612d60612e71565b5b80604052505050565b6000612d7582612cbb565b91507fffffffffffffffffffffffffffffffffffffffffffffffffffffffffffffffff821415612da857612da7612de4565b5b600182019050919050565b6000612dbe82612cbb565b9150612dc983612cbb565b925082612dd957612dd8612e13565b5b828206905092915050565b7f4e487b7100000000000000000000000000000000000000000000000000000000600052601160045260246000fd5b7f4e487b7100000000000000000000000000000000000000000000000000000000600052601260045260246000fd5b7f4e487b7100000000000000000000000000000000000000000000000000000000600052602260045260246000fd5b7f4e487b7100000000000000000000000000000000000000000000000000000000600052604160045260246000fd5b6000601f19601f8301169050919050565b7f4552433732313a207472616e7366657220746f206e6f6e20455243373231526560008201527f63656976657220696d706c656d656e7465720000000000000000000000000000602082015250565b7f4552433732313a20746f6b656e20616c7265616479206d696e74656400000000600082015250565b7f54484952445f574f524400000000000000000000000000000000000000000000600082015250565b7f4552433732313a207472616e7366657220746f20746865207a65726f2061646460008201527f7265737300000000000000000000000000000000000000000000000000000000602082015250565b7f4552433732313a20617070726f766520746f2063616c6c657200000000000000600082015250565b7f5345434f4e445f574f5244000000000000000000000000000000000000000000600082015250565b7f4552433732313a206f70657261746f7220717565727920666f72206e6f6e657860008201527f697374656e7420746f6b656e0000000000000000000000000000000000000000602082015250565b7f3c2f746578743e3c2f7376673e00000000000000000000000000000000000000600082015250565b7f4552433732313a20617070726f76652063616c6c6572206973206e6f74206f7760008201527f6e6572206e6f7220617070726f76656420666f7220616c6c0000000000000000602082015250565b7f4552433732313a2062616c616e636520717565727920666f7220746865207a6560008201527f726f206164647265737300000000000000000000000000000000000000000000602082015250565b7f4552433732313a206f776e657220717565727920666f72206e6f6e657869737460008201527f656e7420746f6b656e0000000000000000000000000000000000000000000000602082015250565b7f45524337323155524953746f726167653a2055524920736574206f66206e6f6e60008201527f6578697374656e7420746f6b656e000000000000000000000000000000000000602082015250565b7f4552433732313a206d696e7420746f20746865207a65726f2061646472657373600082015250565b7f45524337323155524953746f726167653a2055524920717565727920666f722060008201527f6e6f6e6578697374656e7420746f6b656e000000000000000000000000000000602082015250565b7f4552433732313a20617070726f76656420717565727920666f72206e6f6e657860008201527f697374656e7420746f6b656e0000000000000000000000000000000000000000602082015250565b7f4552433732313a207472616e73666572206f6620746f6b656e2074686174206960008201527f73206e6f74206f776e0000000000000000000000000000000000000000000000602082015250565b7f4552433732314d657461646174613a2055524920717565727920666f72206e6f60008201527f6e6578697374656e7420746f6b656e0000000000000000000000000000000000602082015250565b7f4552433732313a20617070726f76616c20746f2063757272656e74206f776e6560008201527f7200000000000000000000000000000000000000000000000000000000000000602082015250565b7f46495253545f574f524400000000000000000000000000000000000000000000600082015250565b7f4552433732313a207472616e736665722063616c6c6572206973206e6f74206f60008201527f776e6572206e6f7220617070726f766564000000000000000000000000000000602082015250565b6133dc81612c51565b81146133e757600080fd5b50565b6133f381612c63565b81146133fe57600080fd5b50565b61340a81612c6f565b811461341557600080fd5b50565b61342181612cbb565b811461342c57600080fd5b5056fe416e204e465420772f20494420257320686173206265656e206d696e74656420746f202573a2646970667358221220429e01260a73cf415ca87e3d51b740ebb7da84ed72926198396e38dc9bc459e164736f6c634300080400333c73766720786d6c6e733d27687474703a2f2f7777772e77332e6f72672f323030302f73766727207072657365727665417370656374526174696f3d27784d696e594d696e206d656574272076696577426f783d273020302033353020333530273e3c7374796c653e2e62617365207b2066696c6c3a2077686974653b20666f6e742d66616d696c793a2073657269663b20666f6e742d73697a653a20323470783b207d3c2f7374796c653e3c726563742077696474683d273130302527206865696768743d2731303025272066696c6c3d27626c61636b27202f3e3c7465787420783d273530252720793d273530252720636c6173733d27626173652720646f6d696e616e742d626173656c696e653d276d6964646c652720746578742d616e63686f723d276d6964646c65273e",
  "linkReferences": {},
  "deployedLinkReferences": {}
}