{
  "_format": "hh-sol-artifact-1",
  "contractName": "ClipArtNumber",
  "sourceName": "contracts/ClipArtNumber.sol",
  "abi": [
    {
      "inputs": [],
      "stateMutability": "nonpayable",
      "type": "constructor"
    },
    {
      "anonymous": false,
      "inputs": [
        {
          "indexed": true,
          "internalType": "address",
          "name": "owner",
          "type": "address"
        },
        {
          "indexed": true,
          "internalType": "address",
          "name": "approved",
          "type": "address"
        },
        {
          "indexed": true,
          "internalType": "uint256",
          "name": "tokenId",
          "type": "uint256"
        }
      ],
      "name": "Approval",
      "type": "event"
    },
    {
      "anonymous": false,
      "inputs": [
        {
          "indexed": true,
          "internalType": "address",
          "name": "owner",
          "type": "address"
        },
        {
          "indexed": true,
          "internalType": "address",
          "name": "operator",
          "type": "address"
        },
        {
          "indexed": false,
          "internalType": "bool",
          "name": "approved",
          "type": "bool"
        }
      ],
      "name": "ApprovalForAll",
      "type": "event"
    },
    {
      "anonymous": false,
      "inputs": [
        {
          "indexed": true,
          "internalType": "address",
          "name": "previousOwner",
          "type": "address"
        },
        {
          "indexed": true,
          "internalType": "address",
          "name": "newOwner",
          "type": "address"
        }
      ],
      "name": "OwnershipTransferred",
      "type": "event"
    },
    {
      "anonymous": false,
      "inputs": [
        {
          "indexed": true,
          "internalType": "address",
          "name": "from",
          "type": "address"
        },
        {
          "indexed": true,
          "internalType": "address",
          "name": "to",
          "type": "address"
        },
        {
          "indexed": true,
          "internalType": "uint256",
          "name": "tokenId",
          "type": "uint256"
        }
      ],
      "name": "Transfer",
      "type": "event"
    },
    {
      "inputs": [
        {
          "internalType": "address",
          "name": "to",
          "type": "address"
        },
        {
          "internalType": "uint256",
          "name": "tokenId",
          "type": "uint256"
        }
      ],
      "name": "approve",
      "outputs": [],
      "stateMutability": "nonpayable",
      "type": "function"
    },
    {
      "inputs": [
        {
          "internalType": "address",
          "name": "owner",
          "type": "address"
        }
      ],
      "name": "balanceOf",
      "outputs": [
        {
          "internalType": "uint256",
          "name": "",
          "type": "uint256"
        }
      ],
      "stateMutability": "view",
      "type": "function"
    },
    {
      "inputs": [
        {
          "internalType": "uint256",
          "name": "tokenId",
          "type": "uint256"
        }
      ],
      "name": "getApproved",
      "outputs": [
        {
          "internalType": "address",
          "name": "",
          "type": "address"
        }
      ],
      "stateMutability": "view",
      "type": "function"
    },
    {
      "inputs": [
        {
          "internalType": "address",
          "name": "owner",
          "type": "address"
        },
        {
          "internalType": "address",
          "name": "operator",
          "type": "address"
        }
      ],
      "name": "isApprovedForAll",
      "outputs": [
        {
          "internalType": "bool",
          "name": "",
          "type": "bool"
        }
      ],
      "stateMutability": "view",
      "type": "function"
    },
    {
      "inputs": [],
      "name": "mintNFT",
      "outputs": [],
      "stateMutability": "nonpayable",
      "type": "function"
    },
    {
      "inputs": [],
      "name": "name",
      "outputs": [
        {
          "internalType": "string",
          "name": "",
          "type": "string"
        }
      ],
      "stateMutability": "view",
      "type": "function"
    },
    {
      "inputs": [],
      "name": "owner",
      "outputs": [
        {
          "internalType": "address",
          "name": "",
          "type": "address"
        }
      ],
      "stateMutability": "view",
      "type": "function"
    },
    {
      "inputs": [
        {
          "internalType": "uint256",
          "name": "tokenId",
          "type": "uint256"
        }
      ],
      "name": "ownerOf",
      "outputs": [
        {
          "internalType": "address",
          "name": "",
          "type": "address"
        }
      ],
      "stateMutability": "view",
      "type": "function"
    },
    {
      "inputs": [],
      "name": "renounceOwnership",
      "outputs": [],
      "stateMutability": "nonpayable",
      "type": "function"
    },
    {
      "inputs": [
        {
          "internalType": "address",
          "name": "from",
          "type": "address"
        },
        {
          "internalType": "address",
          "name": "to",
          "type": "address"
        },
        {
          "internalType": "uint256",
          "name": "tokenId",
          "type": "uint256"
        }
      ],
      "name": "safeTransferFrom",
      "outputs": [],
      "stateMutability": "nonpayable",
      "type": "function"
    },
    {
      "inputs": [
        {
          "internalType": "address",
          "name": "from",
          "type": "address"
        },
        {
          "internalType": "address",
          "name": "to",
          "type": "address"
        },
        {
          "internalType": "uint256",
          "name": "tokenId",
          "type": "uint256"
        },
        {
          "internalType": "bytes",
          "name": "_data",
          "type": "bytes"
        }
      ],
      "name": "safeTransferFrom",
      "outputs": [],
      "stateMutability": "nonpayable",
      "type": "function"
    },
    {
      "inputs": [
        {
          "internalType": "address",
          "name": "operator",
          "type": "address"
        },
        {
          "internalType": "bool",
          "name": "approved",
          "type": "bool"
        }
      ],
      "name": "setApprovalForAll",
      "outputs": [],
      "stateMutability": "nonpayable",
      "type": "function"
    },
    {
      "inputs": [
        {
          "internalType": "bytes4",
          "name": "interfaceId",
          "type": "bytes4"
        }
      ],
      "name": "supportsInterface",
      "outputs": [
        {
          "internalType": "bool",
          "name": "",
          "type": "bool"
        }
      ],
      "stateMutability": "view",
      "type": "function"
    },
    {
      "inputs": [],
      "name": "symbol",
      "outputs": [
        {
          "internalType": "string",
          "name": "",
          "type": "string"
        }
      ],
      "stateMutability": "view",
      "type": "function"
    },
    {
      "inputs": [
        {
          "internalType": "uint256",
          "name": "tokenId",
          "type": "uint256"
        }
      ],
      "name": "tokenURI",
      "outputs": [
        {
          "internalType": "string",
          "name": "",
          "type": "string"
        }
      ],
      "stateMutability": "view",
      "type": "function"
    },
    {
      "inputs": [
        {
          "internalType": "address",
          "name": "from",
          "type": "address"
        },
        {
          "internalType": "address",
          "name": "to",
          "type": "address"
        },
        {
          "internalType": "uint256",
          "name": "tokenId",
          "type": "uint256"
        }
      ],
      "name": "transferFrom",
      "outputs": [],
      "stateMutability": "nonpayable",
      "type": "function"
    },
    {
      "inputs": [
        {
          "internalType": "address",
          "name": "newOwner",
          "type": "address"
        }
      ],
      "name": "transferOwnership",
      "outputs": [],
      "stateMutability": "nonpayable",
      "type": "function"
    }
  ],
  "bytecode": "0x60806040523480156200001157600080fd5b506040518060400160405280600d81526020017f436c69704172744e756d626572000000000000000000000000000000000000008152506040518060400160405280600681526020017f434c504152540000000000000000000000000000000000000000000000000000815250816000908051906020019062000096929190620001a6565b508060019080519060200190620000af929190620001a6565b505050620000d2620000c6620000d860201b60201c565b620000e060201b60201c565b620002bb565b600033905090565b6000600760009054906101000a900473ffffffffffffffffffffffffffffffffffffffff16905081600760006101000a81548173ffffffffffffffffffffffffffffffffffffffff021916908373ffffffffffffffffffffffffffffffffffffffff1602179055508173ffffffffffffffffffffffffffffffffffffffff168173ffffffffffffffffffffffffffffffffffffffff167f8be0079c531659141344cd1fd0a4f28419497f9722a3daafe3b4186f6b6457e060405160405180910390a35050565b828054620001b49062000256565b90600052602060002090601f016020900481019282620001d8576000855562000224565b82601f10620001f357805160ff191683800117855562000224565b8280016001018555821562000224579182015b828111156200022357825182559160200191906001019062000206565b5b50905062000233919062000237565b5090565b5b808211156200025257600081600090555060010162000238565b5090565b600060028204905060018216806200026f57607f821691505b602082108114156200028657620002856200028c565b5b50919050565b7f4e487b7100000000000000000000000000000000000000000000000000000000600052602260045260246000fd5b61341380620002cb6000396000f3fe608060405234801561001057600080fd5b506004361061010b5760003560e01c806370a08231116100a2578063a22cb46511610071578063a22cb46514610292578063b88d4fde146102ae578063c87b56dd146102ca578063e985e9c5146102fa578063f2fde38b1461032a5761010b565b806370a082311461021c578063715018a61461024c5780638da5cb5b1461025657806395d89b41146102745761010b565b806314f710fe116100de57806314f710fe146101aa57806323b872dd146101b457806342842e0e146101d05780636352211e146101ec5761010b565b806301ffc9a71461011057806306fdde0314610140578063081812fc1461015e578063095ea7b31461018e575b600080fd5b61012a6004803603810190610125919061227f565b610346565b604051610137919061271d565b60405180910390f35b610148610428565b6040516101559190612738565b60405180910390f35b610178600480360381019061017391906122d1565b6104ba565b60405161018591906126b6565b60405180910390f35b6101a860048036038101906101a39190612243565b61053f565b005b6101b2610657565b005b6101ce60048036038101906101c9919061213d565b6107ee565b005b6101ea60048036038101906101e5919061213d565b61084e565b005b610206600480360381019061020191906122d1565b61086e565b60405161021391906126b6565b60405180910390f35b610236600480360381019061023191906120d8565b610920565b6040516102439190612a38565b60405180910390f35b6102546109d8565b005b61025e610a60565b60405161026b91906126b6565b60405180910390f35b61027c610a8a565b6040516102899190612738565b60405180910390f35b6102ac60048036038101906102a79190612207565b610b1c565b005b6102c860048036038101906102c3919061218c565b610b32565b005b6102e460048036038101906102df91906122d1565b610b94565b6040516102f19190612738565b60405180910390f35b610314600480360381019061030f9190612101565b610ce6565b604051610321919061271d565b60405180910390f35b610344600480360381019061033f91906120d8565b610d7a565b005b60007f80ac58cd000000000000000000000000000000000000000000000000000000007bffffffffffffffffffffffffffffffffffffffffffffffffffffffff1916827bffffffffffffffffffffffffffffffffffffffffffffffffffffffff1916148061041157507f5b5e139f000000000000000000000000000000000000000000000000000000007bffffffffffffffffffffffffffffffffffffffffffffffffffffffff1916827bffffffffffffffffffffffffffffffffffffffffffffffffffffffff1916145b80610421575061042082610e72565b5b9050919050565b60606000805461043790612c5d565b80601f016020809104026020016040519081016040528092919081815260200182805461046390612c5d565b80156104b05780601f10610485576101008083540402835291602001916104b0565b820191906000526020600020905b81548152906001019060200180831161049357829003601f168201915b5050505050905090565b60006104c582610edc565b610504576040517f08c379a00000000000000000000000000000000000000000000000000000000081526004016104fb90612978565b60405180910390fd5b6004600083815260200190815260200160002060009054906101000a900473ffffffffffffffffffffffffffffffffffffffff169050919050565b600061054a8261086e565b90508073ffffffffffffffffffffffffffffffffffffffff168373ffffffffffffffffffffffffffffffffffffffff1614156105bb576040517f08c379a00000000000000000000000000000000000000000000000000000000081526004016105b2906129f8565b60405180910390fd5b8073ffffffffffffffffffffffffffffffffffffffff166105da610f48565b73ffffffffffffffffffffffffffffffffffffffff161480610609575061060881610603610f48565b610ce6565b5b610648576040517f08c379a000000000000000000000000000000000000000000000000000000000815260040161063f906128b8565b60405180910390fd5b6106528383610f50565b505050565b60006106636008611009565b905061066f3382611017565b60006040518060600160405280603681526020016133a860369139905060006040518060400160405280600181526020017f33000000000000000000000000000000000000000000000000000000000000008152509050600082826040516020016106db929190612687565b60405160208183030381529060405290506106f581611035565b6106ff84826110ce565b61073d6040518060400160405280600481526020017f7465737400000000000000000000000000000000000000000000000000000000815250611035565b61077c6040518060400160405280600981526020017f6e65774974656d4964000000000000000000000000000000000000000000000081525085611142565b6107bb6040518060400160405280600a81526020017f6d73672e73656e64657200000000000000000000000000000000000000000000815250336111de565b6107de60405180606001604052806025815260200161338360259139853361127a565b6107e86008611319565b50505050565b6107ff6107f9610f48565b8261132f565b61083e576040517f08c379a000000000000000000000000000000000000000000000000000000000815260040161083590612a18565b60405180910390fd5b61084983838361140d565b505050565b61086983838360405180602001604052806000815250610b32565b505050565b6000806002600084815260200190815260200160002060009054906101000a900473ffffffffffffffffffffffffffffffffffffffff169050600073ffffffffffffffffffffffffffffffffffffffff168173ffffffffffffffffffffffffffffffffffffffff161415610917576040517f08c379a000000000000000000000000000000000000000000000000000000000815260040161090e906128f8565b60405180910390fd5b80915050919050565b60008073ffffffffffffffffffffffffffffffffffffffff168273ffffffffffffffffffffffffffffffffffffffff161415610991576040517f08c379a0000000000000000000000000000000000000000000000000000000008152600401610988906128d8565b60405180910390fd5b600360008373ffffffffffffffffffffffffffffffffffffffff1673ffffffffffffffffffffffffffffffffffffffff168152602001908152602001600020549050919050565b6109e0610f48565b73ffffffffffffffffffffffffffffffffffffffff166109fe610a60565b73ffffffffffffffffffffffffffffffffffffffff1614610a54576040517f08c379a0000000000000000000000000000000000000000000000000000000008152600401610a4b90612998565b60405180910390fd5b610a5e6000611669565b565b6000600760009054906101000a900473ffffffffffffffffffffffffffffffffffffffff16905090565b606060018054610a9990612c5d565b80601f0160208091040260200160405190810160405280929190818152602001828054610ac590612c5d565b8015610b125780601f10610ae757610100808354040283529160200191610b12565b820191906000526020600020905b815481529060010190602001808311610af557829003601f168201915b5050505050905090565b610b2e610b27610f48565b838361172f565b5050565b610b43610b3d610f48565b8361132f565b610b82576040517f08c379a0000000000000000000000000000000000000000000000000000000008152600401610b7990612a18565b60405180910390fd5b610b8e8484848461189c565b50505050565b6060610b9f82610edc565b610bde576040517f08c379a0000000000000000000000000000000000000000000000000000000008152600401610bd590612958565b60405180910390fd5b6000600660008481526020019081526020016000208054610bfe90612c5d565b80601f0160208091040260200160405190810160405280929190818152602001828054610c2a90612c5d565b8015610c775780601f10610c4c57610100808354040283529160200191610c77565b820191906000526020600020905b815481529060010190602001808311610c5a57829003601f168201915b505050505090506000610c886118f8565b9050600081511415610c9e578192505050610ce1565b600082511115610cd3578082604051602001610cbb929190612663565b60405160208183030381529060405292505050610ce1565b610cdc8461190f565b925050505b919050565b6000600560008473ffffffffffffffffffffffffffffffffffffffff1673ffffffffffffffffffffffffffffffffffffffff16815260200190815260200160002060008373ffffffffffffffffffffffffffffffffffffffff1673ffffffffffffffffffffffffffffffffffffffff16815260200190815260200160002060009054906101000a900460ff16905092915050565b610d82610f48565b73ffffffffffffffffffffffffffffffffffffffff16610da0610a60565b73ffffffffffffffffffffffffffffffffffffffff1614610df6576040517f08c379a0000000000000000000000000000000000000000000000000000000008152600401610ded90612998565b60405180910390fd5b600073ffffffffffffffffffffffffffffffffffffffff168173ffffffffffffffffffffffffffffffffffffffff161415610e66576040517f08c379a0000000000000000000000000000000000000000000000000000000008152600401610e5d90612818565b60405180910390fd5b610e6f81611669565b50565b60007f01ffc9a7000000000000000000000000000000000000000000000000000000007bffffffffffffffffffffffffffffffffffffffffffffffffffffffff1916827bffffffffffffffffffffffffffffffffffffffffffffffffffffffff1916149050919050565b60008073ffffffffffffffffffffffffffffffffffffffff166002600084815260200190815260200160002060009054906101000a900473ffffffffffffffffffffffffffffffffffffffff1673ffffffffffffffffffffffffffffffffffffffff1614159050919050565b600033905090565b816004600083815260200190815260200160002060006101000a81548173ffffffffffffffffffffffffffffffffffffffff021916908373ffffffffffffffffffffffffffffffffffffffff160217905550808273ffffffffffffffffffffffffffffffffffffffff16610fc38361086e565b73ffffffffffffffffffffffffffffffffffffffff167f8c5be1e5ebec7d5bd14f71427d1e84f3dd0314c0f7b2291e5b200ac8c7c3b92560405160405180910390a45050565b600081600001549050919050565b6110318282604051806020016040528060008152506119b6565b5050565b6110cb816040516024016110499190612738565b6040516020818303038152906040527f41304fac000000000000000000000000000000000000000000000000000000007bffffffffffffffffffffffffffffffffffffffffffffffffffffffff19166020820180517bffffffffffffffffffffffffffffffffffffffffffffffffffffffff8381831617835250505050611a11565b50565b6110d782610edc565b611116576040517f08c379a000000000000000000000000000000000000000000000000000000000815260040161110d90612918565b60405180910390fd5b8060066000848152602001908152602001600020908051906020019061113d929190611f64565b505050565b6111da828260405160240161115892919061278a565b6040516020818303038152906040527f9710a9d0000000000000000000000000000000000000000000000000000000007bffffffffffffffffffffffffffffffffffffffffffffffffffffffff19166020820180517bffffffffffffffffffffffffffffffffffffffffffffffffffffffff8381831617835250505050611a11565b5050565b61127682826040516024016111f492919061275a565b6040516020818303038152906040527f319af333000000000000000000000000000000000000000000000000000000007bffffffffffffffffffffffffffffffffffffffffffffffffffffffff19166020820180517bffffffffffffffffffffffffffffffffffffffffffffffffffffffff8381831617835250505050611a11565b5050565b611314838383604051602401611292939291906127ba565b6040516020818303038152906040527fe3849f79000000000000000000000000000000000000000000000000000000007bffffffffffffffffffffffffffffffffffffffffffffffffffffffff19166020820180517bffffffffffffffffffffffffffffffffffffffffffffffffffffffff8381831617835250505050611a11565b505050565b6001816000016000828254019250508190555050565b600061133a82610edc565b611379576040517f08c379a000000000000000000000000000000000000000000000000000000000815260040161137090612898565b60405180910390fd5b60006113848361086e565b90508073ffffffffffffffffffffffffffffffffffffffff168473ffffffffffffffffffffffffffffffffffffffff1614806113f357508373ffffffffffffffffffffffffffffffffffffffff166113db846104ba565b73ffffffffffffffffffffffffffffffffffffffff16145b8061140457506114038185610ce6565b5b91505092915050565b8273ffffffffffffffffffffffffffffffffffffffff1661142d8261086e565b73ffffffffffffffffffffffffffffffffffffffff1614611483576040517f08c379a000000000000000000000000000000000000000000000000000000000815260040161147a906129b8565b60405180910390fd5b600073ffffffffffffffffffffffffffffffffffffffff168273ffffffffffffffffffffffffffffffffffffffff1614156114f3576040517f08c379a00000000000000000000000000000000000000000000000000000000081526004016114ea90612858565b60405180910390fd5b6114fe838383611a3a565b611509600082610f50565b6001600360008573ffffffffffffffffffffffffffffffffffffffff1673ffffffffffffffffffffffffffffffffffffffff16815260200190815260200160002060008282546115599190612b73565b925050819055506001600360008473ffffffffffffffffffffffffffffffffffffffff1673ffffffffffffffffffffffffffffffffffffffff16815260200190815260200160002060008282546115b09190612aec565b92505081905550816002600083815260200190815260200160002060006101000a81548173ffffffffffffffffffffffffffffffffffffffff021916908373ffffffffffffffffffffffffffffffffffffffff160217905550808273ffffffffffffffffffffffffffffffffffffffff168473ffffffffffffffffffffffffffffffffffffffff167fddf252ad1be2c89b69c2b068fc378daa952ba7f163c4a11628f55a4df523b3ef60405160405180910390a4505050565b6000600760009054906101000a900473ffffffffffffffffffffffffffffffffffffffff16905081600760006101000a81548173ffffffffffffffffffffffffffffffffffffffff021916908373ffffffffffffffffffffffffffffffffffffffff1602179055508173ffffffffffffffffffffffffffffffffffffffff168173ffffffffffffffffffffffffffffffffffffffff167f8be0079c531659141344cd1fd0a4f28419497f9722a3daafe3b4186f6b6457e060405160405180910390a35050565b8173ffffffffffffffffffffffffffffffffffffffff168373ffffffffffffffffffffffffffffffffffffffff16141561179e576040517f08c379a000000000000000000000000000000000000000000000000000000000815260040161179590612878565b60405180910390fd5b80600560008573ffffffffffffffffffffffffffffffffffffffff1673ffffffffffffffffffffffffffffffffffffffff16815260200190815260200160002060008473ffffffffffffffffffffffffffffffffffffffff1673ffffffffffffffffffffffffffffffffffffffff16815260200190815260200160002060006101000a81548160ff0219169083151502179055508173ffffffffffffffffffffffffffffffffffffffff168373ffffffffffffffffffffffffffffffffffffffff167f17307eab39ab6107e8899845ad3d59bd9653f200f220920489ca2b5937696c318360405161188f919061271d565b60405180910390a3505050565b6118a784848461140d565b6118b384848484611a3f565b6118f2576040517f08c379a00000000000000000000000000000000000000000000000000000000081526004016118e9906127f8565b60405180910390fd5b50505050565b606060405180602001604052806000815250905090565b606061191a82610edc565b611959576040517f08c379a0000000000000000000000000000000000000000000000000000000008152600401611950906129d8565b60405180910390fd5b60006119636118f8565b9050600081511161198357604051806020016040528060008152506119ae565b8061198d84611bd6565b60405160200161199e929190612663565b6040516020818303038152906040525b915050919050565b6119c08383611d83565b6119cd6000848484611a3f565b611a0c576040517f08c379a0000000000000000000000000000000000000000000000000000000008152600401611a03906127f8565b60405180910390fd5b505050565b60008151905060006a636f6e736f6c652e6c6f679050602083016000808483855afa5050505050565b505050565b6000611a608473ffffffffffffffffffffffffffffffffffffffff16611f51565b15611bc9578373ffffffffffffffffffffffffffffffffffffffff1663150b7a02611a89610f48565b8786866040518563ffffffff1660e01b8152600401611aab94939291906126d1565b602060405180830381600087803b158015611ac557600080fd5b505af1925050508015611af657506040513d601f19601f82011682018060405250810190611af391906122a8565b60015b611b79573d8060008114611b26576040519150601f19603f3d011682016040523d82523d6000602084013e611b2b565b606091505b50600081511415611b71576040517f08c379a0000000000000000000000000000000000000000000000000000000008152600401611b68906127f8565b60405180910390fd5b805181602001fd5b63150b7a0260e01b7bffffffffffffffffffffffffffffffffffffffffffffffffffffffff1916817bffffffffffffffffffffffffffffffffffffffffffffffffffffffff191614915050611bce565b600190505b949350505050565b60606000821415611c1e576040518060400160405280600181526020017f30000000000000000000000000000000000000000000000000000000000000008152509050611d7e565b600082905060005b60008214611c50578080611c3990612cc0565b915050600a82611c499190612b42565b9150611c26565b60008167ffffffffffffffff811115611c92577f4e487b7100000000000000000000000000000000000000000000000000000000600052604160045260246000fd5b6040519080825280601f01601f191660200182016040528015611cc45781602001600182028036833780820191505090505b5090505b60008514611d7757600182611cdd9190612b73565b9150600a85611cec9190612d09565b6030611cf89190612aec565b60f81b818381518110611d34577f4e487b7100000000000000000000000000000000000000000000000000000000600052603260045260246000fd5b60200101907effffffffffffffffffffffffffffffffffffffffffffffffffffffffffffff1916908160001a905350600a85611d709190612b42565b9450611cc8565b8093505050505b919050565b600073ffffffffffffffffffffffffffffffffffffffff168273ffffffffffffffffffffffffffffffffffffffff161415611df3576040517f08c379a0000000000000000000000000000000000000000000000000000000008152600401611dea90612938565b60405180910390fd5b611dfc81610edc565b15611e3c576040517f08c379a0000000000000000000000000000000000000000000000000000000008152600401611e3390612838565b60405180910390fd5b611e4860008383611a3a565b6001600360008473ffffffffffffffffffffffffffffffffffffffff1673ffffffffffffffffffffffffffffffffffffffff1681526020019081526020016000206000828254611e989190612aec565b92505081905550816002600083815260200190815260200160002060006101000a81548173ffffffffffffffffffffffffffffffffffffffff021916908373ffffffffffffffffffffffffffffffffffffffff160217905550808273ffffffffffffffffffffffffffffffffffffffff16600073ffffffffffffffffffffffffffffffffffffffff167fddf252ad1be2c89b69c2b068fc378daa952ba7f163c4a11628f55a4df523b3ef60405160405180910390a45050565b600080823b905060008111915050919050565b828054611f7090612c5d565b90600052602060002090601f016020900481019282611f925760008555611fd9565b82601f10611fab57805160ff1916838001178555611fd9565b82800160010185558215611fd9579182015b82811115611fd8578251825591602001919060010190611fbd565b5b509050611fe69190611fea565b5090565b5b80821115612003576000816000905550600101611feb565b5090565b600061201a61201584612a78565b612a53565b90508281526020810184848401111561203257600080fd5b61203d848285612c1b565b509392505050565b60008135905061205481613326565b92915050565b6000813590506120698161333d565b92915050565b60008135905061207e81613354565b92915050565b60008151905061209381613354565b92915050565b600082601f8301126120aa57600080fd5b81356120ba848260208601612007565b91505092915050565b6000813590506120d28161336b565b92915050565b6000602082840312156120ea57600080fd5b60006120f884828501612045565b91505092915050565b6000806040838503121561211457600080fd5b600061212285828601612045565b925050602061213385828601612045565b9150509250929050565b60008060006060848603121561215257600080fd5b600061216086828701612045565b935050602061217186828701612045565b9250506040612182868287016120c3565b9150509250925092565b600080600080608085870312156121a257600080fd5b60006121b087828801612045565b94505060206121c187828801612045565b93505060406121d2878288016120c3565b925050606085013567ffffffffffffffff8111156121ef57600080fd5b6121fb87828801612099565b91505092959194509250565b6000806040838503121561221a57600080fd5b600061222885828601612045565b92505060206122398582860161205a565b9150509250929050565b6000806040838503121561225657600080fd5b600061226485828601612045565b9250506020612275858286016120c3565b9150509250929050565b60006020828403121561229157600080fd5b600061229f8482850161206f565b91505092915050565b6000602082840312156122ba57600080fd5b60006122c884828501612084565b91505092915050565b6000602082840312156122e357600080fd5b60006122f1848285016120c3565b91505092915050565b61230381612ba7565b82525050565b61231281612bb9565b82525050565b600061232382612aa9565b61232d8185612abf565b935061233d818560208601612c2a565b61234681612df6565b840191505092915050565b600061235c82612ab4565b6123668185612ad0565b9350612376818560208601612c2a565b61237f81612df6565b840191505092915050565b600061239582612ab4565b61239f8185612ae1565b93506123af818560208601612c2a565b80840191505092915050565b60006123c8603283612ad0565b91506123d382612e07565b604082019050919050565b60006123eb602683612ad0565b91506123f682612e56565b604082019050919050565b600061240e601c83612ad0565b915061241982612ea5565b602082019050919050565b6000612431602483612ad0565b915061243c82612ece565b604082019050919050565b6000612454601983612ad0565b915061245f82612f1d565b602082019050919050565b6000612477602c83612ad0565b915061248282612f46565b604082019050919050565b600061249a603883612ad0565b91506124a582612f95565b604082019050919050565b60006124bd602a83612ad0565b91506124c882612fe4565b604082019050919050565b60006124e0602983612ad0565b91506124eb82613033565b604082019050919050565b6000612503602e83612ad0565b915061250e82613082565b604082019050919050565b6000612526602083612ad0565b9150612531826130d1565b602082019050919050565b6000612549603183612ad0565b9150612554826130fa565b604082019050919050565b600061256c602c83612ad0565b915061257782613149565b604082019050919050565b600061258f600583612ae1565b915061259a82613198565b600582019050919050565b60006125b2602083612ad0565b91506125bd826131c1565b602082019050919050565b60006125d5602983612ad0565b91506125e0826131ea565b604082019050919050565b60006125f8602f83612ad0565b915061260382613239565b604082019050919050565b600061261b602183612ad0565b915061262682613288565b604082019050919050565b600061263e603183612ad0565b9150612649826132d7565b604082019050919050565b61265d81612c11565b82525050565b600061266f828561238a565b915061267b828461238a565b91508190509392505050565b6000612693828561238a565b915061269f828461238a565b91506126aa82612582565b91508190509392505050565b60006020820190506126cb60008301846122fa565b92915050565b60006080820190506126e660008301876122fa565b6126f360208301866122fa565b6127006040830185612654565b81810360608301526127128184612318565b905095945050505050565b60006020820190506127326000830184612309565b92915050565b600060208201905081810360008301526127528184612351565b905092915050565b600060408201905081810360008301526127748185612351565b905061278360208301846122fa565b9392505050565b600060408201905081810360008301526127a48185612351565b90506127b36020830184612654565b9392505050565b600060608201905081810360008301526127d48186612351565b90506127e36020830185612654565b6127f060408301846122fa565b949350505050565b60006020820190508181036000830152612811816123bb565b9050919050565b60006020820190508181036000830152612831816123de565b9050919050565b6000602082019050818103600083015261285181612401565b9050919050565b6000602082019050818103600083015261287181612424565b9050919050565b6000602082019050818103600083015261289181612447565b9050919050565b600060208201905081810360008301526128b18161246a565b9050919050565b600060208201905081810360008301526128d18161248d565b9050919050565b600060208201905081810360008301526128f1816124b0565b9050919050565b60006020820190508181036000830152612911816124d3565b9050919050565b60006020820190508181036000830152612931816124f6565b9050919050565b6000602082019050818103600083015261295181612519565b9050919050565b600060208201905081810360008301526129718161253c565b9050919050565b600060208201905081810360008301526129918161255f565b9050919050565b600060208201905081810360008301526129b1816125a5565b9050919050565b600060208201905081810360008301526129d1816125c8565b9050919050565b600060208201905081810360008301526129f1816125eb565b9050919050565b60006020820190508181036000830152612a118161260e565b9050919050565b60006020820190508181036000830152612a3181612631565b9050919050565b6000602082019050612a4d6000830184612654565b92915050565b6000612a5d612a6e565b9050612a698282612c8f565b919050565b6000604051905090565b600067ffffffffffffffff821115612a9357612a92612dc7565b5b612a9c82612df6565b9050602081019050919050565b600081519050919050565b600081519050919050565b600082825260208201905092915050565b600082825260208201905092915050565b600081905092915050565b6000612af782612c11565b9150612b0283612c11565b9250827fffffffffffffffffffffffffffffffffffffffffffffffffffffffffffffffff03821115612b3757612b36612d3a565b5b828201905092915050565b6000612b4d82612c11565b9150612b5883612c11565b925082612b6857612b67612d69565b5b828204905092915050565b6000612b7e82612c11565b9150612b8983612c11565b925082821015612b9c57612b9b612d3a565b5b828203905092915050565b6000612bb282612bf1565b9050919050565b60008115159050919050565b60007fffffffff0000000000000000000000000000000000000000000000000000000082169050919050565b600073ffffffffffffffffffffffffffffffffffffffff82169050919050565b6000819050919050565b82818337600083830152505050565b60005b83811015612c48578082015181840152602081019050612c2d565b83811115612c57576000848401525b50505050565b60006002820490506001821680612c7557607f821691505b60208210811415612c8957612c88612d98565b5b50919050565b612c9882612df6565b810181811067ffffffffffffffff82111715612cb757612cb6612dc7565b5b80604052505050565b6000612ccb82612c11565b91507fffffffffffffffffffffffffffffffffffffffffffffffffffffffffffffffff821415612cfe57612cfd612d3a565b5b600182019050919050565b6000612d1482612c11565b9150612d1f83612c11565b925082612d2f57612d2e612d69565b5b828206905092915050565b7f4e487b7100000000000000000000000000000000000000000000000000000000600052601160045260246000fd5b7f4e487b7100000000000000000000000000000000000000000000000000000000600052601260045260246000fd5b7f4e487b7100000000000000000000000000000000000000000000000000000000600052602260045260246000fd5b7f4e487b7100000000000000000000000000000000000000000000000000000000600052604160045260246000fd5b6000601f19601f8301169050919050565b7f4552433732313a207472616e7366657220746f206e6f6e20455243373231526560008201527f63656976657220696d706c656d656e7465720000000000000000000000000000602082015250565b7f4f776e61626c653a206e6577206f776e657220697320746865207a65726f206160008201527f6464726573730000000000000000000000000000000000000000000000000000602082015250565b7f4552433732313a20746f6b656e20616c7265616479206d696e74656400000000600082015250565b7f4552433732313a207472616e7366657220746f20746865207a65726f2061646460008201527f7265737300000000000000000000000000000000000000000000000000000000602082015250565b7f4552433732313a20617070726f766520746f2063616c6c657200000000000000600082015250565b7f4552433732313a206f70657261746f7220717565727920666f72206e6f6e657860008201527f697374656e7420746f6b656e0000000000000000000000000000000000000000602082015250565b7f4552433732313a20617070726f76652063616c6c6572206973206e6f74206f7760008201527f6e6572206e6f7220617070726f76656420666f7220616c6c0000000000000000602082015250565b7f4552433732313a2062616c616e636520717565727920666f7220746865207a6560008201527f726f206164647265737300000000000000000000000000000000000000000000602082015250565b7f4552433732313a206f776e657220717565727920666f72206e6f6e657869737460008201527f656e7420746f6b656e0000000000000000000000000000000000000000000000602082015250565b7f45524337323155524953746f726167653a2055524920736574206f66206e6f6e60008201527f6578697374656e7420746f6b656e000000000000000000000000000000000000602082015250565b7f4552433732313a206d696e7420746f20746865207a65726f2061646472657373600082015250565b7f45524337323155524953746f726167653a2055524920717565727920666f722060008201527f6e6f6e6578697374656e7420746f6b656e000000000000000000000000000000602082015250565b7f4552433732313a20617070726f76656420717565727920666f72206e6f6e657860008201527f697374656e7420746f6b656e0000000000000000000000000000000000000000602082015250565b7f2e6a736f6e000000000000000000000000000000000000000000000000000000600082015250565b7f4f776e61626c653a2063616c6c6572206973206e6f7420746865206f776e6572600082015250565b7f4552433732313a207472616e73666572206f6620746f6b656e2074686174206960008201527f73206e6f74206f776e0000000000000000000000000000000000000000000000602082015250565b7f4552433732314d657461646174613a2055524920717565727920666f72206e6f60008201527f6e6578697374656e7420746f6b656e0000000000000000000000000000000000602082015250565b7f4552433732313a20617070726f76616c20746f2063757272656e74206f776e6560008201527f7200000000000000000000000000000000000000000000000000000000000000602082015250565b7f4552433732313a207472616e736665722063616c6c6572206973206e6f74206f60008201527f776e6572206e6f7220617070726f766564000000000000000000000000000000602082015250565b61332f81612ba7565b811461333a57600080fd5b50565b61334681612bb9565b811461335157600080fd5b50565b61335d81612bc5565b811461336857600080fd5b50565b61337481612c11565b811461337f57600080fd5b5056fe416e204e465420772f20494420257320686173206265656e206d696e74656420746f202573697066733a2f2f516d5637444577704a54316f764b74396172714c79357145674850416533747a6f7856534e503434455a646b67312fa264697066735822122067424c917451ea01f6f81fa6cb23596c6e36dc0ab89fbd3d338fec3bbc7a3be564736f6c63430008040033",
  "linkReferences": {},
  "deployedLinkReferences": {}
}